{
	"contracts/process.sol": {
		"CoupleSheepContract": {
			"abi": [
				{
					"inputs": [
						{
							"internalType": "address",
							"name": "_externalContractMintAddress",
							"type": "address"
						},
						{
							"internalType": "address",
							"name": "_externalContractDepositAddress",
							"type": "address"
						}
					],
					"stateMutability": "nonpayable",
					"type": "constructor"
				},
				{
					"inputs": [
						{
							"internalType": "uint256",
							"name": "tokenId",
							"type": "uint256"
						}
					],
					"name": "callDeposit",
					"outputs": [
						{
							"internalType": "bool",
							"name": "",
							"type": "bool"
						}
					],
					"stateMutability": "nonpayable",
					"type": "function"
				},
				{
					"inputs": [
						{
							"internalType": "uint256",
							"name": "payableAmount",
							"type": "uint256"
						},
						{
							"components": [
								{
									"internalType": "address",
									"name": "token0",
									"type": "address"
								},
								{
									"internalType": "address",
									"name": "token1",
									"type": "address"
								},
								{
									"internalType": "int24",
									"name": "tickSpacing",
									"type": "int24"
								},
								{
									"internalType": "int24",
									"name": "tickLower",
									"type": "int24"
								},
								{
									"internalType": "int24",
									"name": "tickUpper",
									"type": "int24"
								},
								{
									"internalType": "uint256",
									"name": "amount0Desired",
									"type": "uint256"
								},
								{
									"internalType": "uint256",
									"name": "amount1Desired",
									"type": "uint256"
								},
								{
									"internalType": "uint256",
									"name": "amount0Min",
									"type": "uint256"
								},
								{
									"internalType": "uint256",
									"name": "amount1Min",
									"type": "uint256"
								},
								{
									"internalType": "address",
									"name": "recipient",
									"type": "address"
								},
								{
									"internalType": "uint256",
									"name": "deadline",
									"type": "uint256"
								},
								{
									"internalType": "uint160",
									"name": "sqrtPriceX96",
									"type": "uint160"
								}
							],
							"internalType": "struct MintParams",
							"name": "params",
							"type": "tuple"
						},
						{
							"internalType": "address",
							"name": "token0Address",
							"type": "address"
						},
						{
							"internalType": "address",
							"name": "token1Address",
							"type": "address"
						}
					],
					"name": "callMint",
					"outputs": [
						{
							"internalType": "uint256",
							"name": "",
							"type": "uint256"
						}
					],
					"stateMutability": "payable",
					"type": "function"
				},
				{
					"inputs": [],
					"name": "externalContractDeposit",
					"outputs": [
						{
							"internalType": "contract IExternalContractDeposit",
							"name": "",
							"type": "address"
						}
					],
					"stateMutability": "view",
					"type": "function"
				},
				{
					"inputs": [],
					"name": "externalContractMint",
					"outputs": [
						{
							"internalType": "contract IExternalContractMint",
							"name": "",
							"type": "address"
						}
					],
					"stateMutability": "view",
					"type": "function"
				}
			],
			"devdoc": {
				"kind": "dev",
				"methods": {},
				"version": 1
			},
			"evm": {
				"assembly": "    /* \"contracts/process.sol\":1299:3295  contract CoupleSheepContract {\r... */\n  mstore(0x40, 0x80)\n    /* \"contracts/process.sol\":1581:1859  constructor(address _externalContractMintAddress, address _externalContractDepositAddress) {\r... */\n  callvalue\n  dup1\n  iszero\n  tag_1\n  jumpi\n  0x00\n  dup1\n  revert\ntag_1:\n  pop\n  mload(0x40)\n  sub(codesize, bytecodeSize)\n  dup1\n  bytecodeSize\n  dup4\n  codecopy\n  dup2\n  dup2\n  add\n  0x40\n  mstore\n  dup2\n  add\n  swap1\n  tag_2\n  swap2\n  swap1\n  tag_3\n  jump\t// in\ntag_2:\n    /* \"contracts/process.sol\":1728:1756  _externalContractMintAddress */\n  dup2\n    /* \"contracts/process.sol\":1683:1703  externalContractMint */\n  0x00\n  dup1\n    /* \"contracts/process.sol\":1683:1757  externalContractMint = IExternalContractMint(_externalContractMintAddress) */\n  0x0100\n  exp\n  dup2\n  sload\n  dup2\n  0xffffffffffffffffffffffffffffffffffffffff\n  mul\n  not\n  and\n  swap1\n  dup4\n  0xffffffffffffffffffffffffffffffffffffffff\n  and\n  mul\n  or\n  swap1\n  sstore\n  pop\n    /* \"contracts/process.sol\":1819:1850  _externalContractDepositAddress */\n  dup1\n    /* \"contracts/process.sol\":1768:1791  externalContractDeposit */\n  0x01\n  0x00\n    /* \"contracts/process.sol\":1768:1851  externalContractDeposit = IExternalContractDeposit(_externalContractDepositAddress) */\n  0x0100\n  exp\n  dup2\n  sload\n  dup2\n  0xffffffffffffffffffffffffffffffffffffffff\n  mul\n  not\n  and\n  swap1\n  dup4\n  0xffffffffffffffffffffffffffffffffffffffff\n  and\n  mul\n  or\n  swap1\n  sstore\n  pop\n    /* \"contracts/process.sol\":1581:1859  constructor(address _externalContractMintAddress, address _externalContractDepositAddress) {\r... */\n  pop\n  pop\n    /* \"contracts/process.sol\":1299:3295  contract CoupleSheepContract {\r... */\n  jump(tag_6)\n    /* \"#utility.yul\":7:150   */\ntag_8:\n  0x00\n    /* \"#utility.yul\":95:101   */\n  dup2\n    /* \"#utility.yul\":89:102   */\n  mload\n    /* \"#utility.yul\":80:102   */\n  swap1\n  pop\n    /* \"#utility.yul\":111:144   */\n  tag_10\n    /* \"#utility.yul\":138:143   */\n  dup2\n    /* \"#utility.yul\":111:144   */\n  tag_11\n  jump\t// in\ntag_10:\n    /* \"#utility.yul\":70:150   */\n  swap3\n  swap2\n  pop\n  pop\n  jump\t// out\n    /* \"#utility.yul\":156:596   */\ntag_3:\n  0x00\n  dup1\n    /* \"#utility.yul\":292:294   */\n  0x40\n    /* \"#utility.yul\":280:289   */\n  dup4\n    /* \"#utility.yul\":271:278   */\n  dup6\n    /* \"#utility.yul\":267:290   */\n  sub\n    /* \"#utility.yul\":263:295   */\n  slt\n    /* \"#utility.yul\":260:262   */\n  iszero\n  tag_13\n  jumpi\n    /* \"#utility.yul\":308:309   */\n  0x00\n    /* \"#utility.yul\":305:306   */\n  dup1\n    /* \"#utility.yul\":298:310   */\n  revert\n    /* \"#utility.yul\":260:262   */\ntag_13:\n    /* \"#utility.yul\":351:352   */\n  0x00\n    /* \"#utility.yul\":376:440   */\n  tag_14\n    /* \"#utility.yul\":432:439   */\n  dup6\n    /* \"#utility.yul\":423:429   */\n  dup3\n    /* \"#utility.yul\":412:421   */\n  dup7\n    /* \"#utility.yul\":408:430   */\n  add\n    /* \"#utility.yul\":376:440   */\n  tag_8\n  jump\t// in\ntag_14:\n    /* \"#utility.yul\":366:440   */\n  swap3\n  pop\n    /* \"#utility.yul\":322:450   */\n  pop\n    /* \"#utility.yul\":489:491   */\n  0x20\n    /* \"#utility.yul\":515:579   */\n  tag_15\n    /* \"#utility.yul\":571:578   */\n  dup6\n    /* \"#utility.yul\":562:568   */\n  dup3\n    /* \"#utility.yul\":551:560   */\n  dup7\n    /* \"#utility.yul\":547:569   */\n  add\n    /* \"#utility.yul\":515:579   */\n  tag_8\n  jump\t// in\ntag_15:\n    /* \"#utility.yul\":505:579   */\n  swap2\n  pop\n    /* \"#utility.yul\":460:589   */\n  pop\n    /* \"#utility.yul\":250:596   */\n  swap3\n  pop\n  swap3\n  swap1\n  pop\n  jump\t// out\n    /* \"#utility.yul\":602:698   */\ntag_16:\n  0x00\n    /* \"#utility.yul\":668:692   */\n  tag_18\n    /* \"#utility.yul\":686:691   */\n  dup3\n    /* \"#utility.yul\":668:692   */\n  tag_19\n  jump\t// in\ntag_18:\n    /* \"#utility.yul\":657:692   */\n  swap1\n  pop\n    /* \"#utility.yul\":647:698   */\n  swap2\n  swap1\n  pop\n  jump\t// out\n    /* \"#utility.yul\":704:830   */\ntag_19:\n  0x00\n    /* \"#utility.yul\":781:823   */\n  0xffffffffffffffffffffffffffffffffffffffff\n    /* \"#utility.yul\":774:779   */\n  dup3\n    /* \"#utility.yul\":770:824   */\n  and\n    /* \"#utility.yul\":759:824   */\n  swap1\n  pop\n    /* \"#utility.yul\":749:830   */\n  swap2\n  swap1\n  pop\n  jump\t// out\n    /* \"#utility.yul\":836:958   */\ntag_11:\n    /* \"#utility.yul\":909:933   */\n  tag_22\n    /* \"#utility.yul\":927:932   */\n  dup2\n    /* \"#utility.yul\":909:933   */\n  tag_16\n  jump\t// in\ntag_22:\n    /* \"#utility.yul\":902:907   */\n  dup2\n    /* \"#utility.yul\":899:934   */\n  eq\n    /* \"#utility.yul\":889:891   */\n  tag_23\n  jumpi\n    /* \"#utility.yul\":948:949   */\n  0x00\n    /* \"#utility.yul\":945:946   */\n  dup1\n    /* \"#utility.yul\":938:950   */\n  revert\n    /* \"#utility.yul\":889:891   */\ntag_23:\n    /* \"#utility.yul\":879:958   */\n  pop\n  jump\t// out\n    /* \"contracts/process.sol\":1299:3295  contract CoupleSheepContract {\r... */\ntag_6:\n  dataSize(sub_0)\n  dup1\n  dataOffset(sub_0)\n  0x00\n  codecopy\n  0x00\n  return\nstop\n\nsub_0: assembly {\n        /* \"contracts/process.sol\":1299:3295  contract CoupleSheepContract {\r... */\n      mstore(0x40, 0x80)\n      jumpi(tag_1, lt(calldatasize, 0x04))\n      shr(0xe0, calldataload(0x00))\n      dup1\n      0x2b130f17\n      eq\n      tag_2\n      jumpi\n      dup1\n      0x36cbf900\n      eq\n      tag_3\n      jumpi\n      dup1\n      0xa5627d32\n      eq\n      tag_4\n      jumpi\n      dup1\n      0xa773e1c4\n      eq\n      tag_5\n      jumpi\n    tag_1:\n      0x00\n      dup1\n      revert\n        /* \"contracts/process.sol\":1428:1483  IExternalContractDeposit public externalContractDeposit */\n    tag_2:\n      callvalue\n      dup1\n      iszero\n      tag_6\n      jumpi\n      0x00\n      dup1\n      revert\n    tag_6:\n      pop\n      tag_7\n      tag_8\n      jump\t// in\n    tag_7:\n      mload(0x40)\n      tag_9\n      swap2\n      swap1\n      tag_10\n      jump\t// in\n    tag_9:\n      mload(0x40)\n      dup1\n      swap2\n      sub\n      swap1\n      return\n        /* \"contracts/process.sol\":1335:1384  IExternalContractMint public externalContractMint */\n    tag_3:\n      callvalue\n      dup1\n      iszero\n      tag_11\n      jumpi\n      0x00\n      dup1\n      revert\n    tag_11:\n      pop\n      tag_12\n      tag_13\n      jump\t// in\n    tag_12:\n      mload(0x40)\n      tag_14\n      swap2\n      swap1\n      tag_15\n      jump\t// in\n    tag_14:\n      mload(0x40)\n      dup1\n      swap2\n      sub\n      swap1\n      return\n        /* \"contracts/process.sol\":3080:3292  function callDeposit(uint256 tokenId) public returns (bool) {\r... */\n    tag_4:\n      callvalue\n      dup1\n      iszero\n      tag_16\n      jumpi\n      0x00\n      dup1\n      revert\n    tag_16:\n      pop\n      tag_17\n      0x04\n      dup1\n      calldatasize\n      sub\n      dup2\n      add\n      swap1\n      tag_18\n      swap2\n      swap1\n      tag_19\n      jump\t// in\n    tag_18:\n      tag_20\n      jump\t// in\n    tag_17:\n      mload(0x40)\n      tag_21\n      swap2\n      swap1\n      tag_22\n      jump\t// in\n    tag_21:\n      mload(0x40)\n      dup1\n      swap2\n      sub\n      swap1\n      return\n        /* \"contracts/process.sol\":1956:2990  function callMint(\r... */\n    tag_5:\n      tag_23\n      0x04\n      dup1\n      calldatasize\n      sub\n      dup2\n      add\n      swap1\n      tag_24\n      swap2\n      swap1\n      tag_25\n      jump\t// in\n    tag_24:\n      tag_26\n      jump\t// in\n    tag_23:\n      mload(0x40)\n      tag_27\n      swap2\n      swap1\n      tag_28\n      jump\t// in\n    tag_27:\n      mload(0x40)\n      dup1\n      swap2\n      sub\n      swap1\n      return\n        /* \"contracts/process.sol\":1428:1483  IExternalContractDeposit public externalContractDeposit */\n    tag_8:\n      0x01\n      0x00\n      swap1\n      sload\n      swap1\n      0x0100\n      exp\n      swap1\n      div\n      0xffffffffffffffffffffffffffffffffffffffff\n      and\n      dup2\n      jump\t// out\n        /* \"contracts/process.sol\":1335:1384  IExternalContractMint public externalContractMint */\n    tag_13:\n      0x00\n      dup1\n      sload\n      swap1\n      0x0100\n      exp\n      swap1\n      div\n      0xffffffffffffffffffffffffffffffffffffffff\n      and\n      dup2\n      jump\t// out\n        /* \"contracts/process.sol\":3080:3292  function callDeposit(uint256 tokenId) public returns (bool) {\r... */\n    tag_20:\n        /* \"contracts/process.sol\":3134:3138  bool */\n      0x00\n        /* \"contracts/process.sol\":3232:3255  externalContractDeposit */\n      0x01\n      0x00\n      swap1\n      sload\n      swap1\n      0x0100\n      exp\n      swap1\n      div\n      0xffffffffffffffffffffffffffffffffffffffff\n      and\n        /* \"contracts/process.sol\":3232:3263  externalContractDeposit.deposit */\n      0xffffffffffffffffffffffffffffffffffffffff\n      and\n      0x6e553f65\n        /* \"contracts/process.sol\":3264:3271  tokenId */\n      dup4\n        /* \"contracts/process.sol\":3273:3283  msg.sender */\n      caller\n        /* \"contracts/process.sol\":3232:3284  externalContractDeposit.deposit(tokenId, msg.sender) */\n      mload(0x40)\n      dup4\n      0xffffffff\n      and\n      0xe0\n      shl\n      dup2\n      mstore\n      0x04\n      add\n      tag_30\n      swap3\n      swap2\n      swap1\n      tag_31\n      jump\t// in\n    tag_30:\n      0x20\n      mload(0x40)\n      dup1\n      dup4\n      sub\n      dup2\n      0x00\n      dup8\n      dup1\n      extcodesize\n      iszero\n      dup1\n      iszero\n      tag_32\n      jumpi\n      0x00\n      dup1\n      revert\n    tag_32:\n      pop\n      gas\n      call\n      iszero\n      dup1\n      iszero\n      tag_34\n      jumpi\n      returndatasize\n      0x00\n      dup1\n      returndatacopy\n      revert(0x00, returndatasize)\n    tag_34:\n      pop\n      pop\n      pop\n      pop\n      mload(0x40)\n      returndatasize\n      not(0x1f)\n      0x1f\n      dup3\n      add\n      and\n      dup3\n      add\n      dup1\n      0x40\n      mstore\n      pop\n      dup2\n      add\n      swap1\n      tag_35\n      swap2\n      swap1\n      tag_36\n      jump\t// in\n    tag_35:\n        /* \"contracts/process.sol\":3225:3284  return externalContractDeposit.deposit(tokenId, msg.sender) */\n      swap1\n      pop\n        /* \"contracts/process.sol\":3080:3292  function callDeposit(uint256 tokenId) public returns (bool) {\r... */\n      swap2\n      swap1\n      pop\n      jump\t// out\n        /* \"contracts/process.sol\":1956:2990  function callMint(\r... */\n    tag_26:\n        /* \"contracts/process.sol\":2182:2189  uint256 */\n      0x00\n        /* \"contracts/process.sol\":2289:2302  payableAmount */\n      dup5\n        /* \"contracts/process.sol\":2276:2285  msg.value */\n      callvalue\n        /* \"contracts/process.sol\":2276:2302  msg.value == payableAmount */\n      eq\n        /* \"contracts/process.sol\":2268:2327  require(msg.value == payableAmount, \"Incorrect Ether sent\") */\n      tag_38\n      jumpi\n      mload(0x40)\n      0x08c379a000000000000000000000000000000000000000000000000000000000\n      dup2\n      mstore\n      0x04\n      add\n      tag_39\n      swap1\n      tag_40\n      jump\t// in\n    tag_39:\n      mload(0x40)\n      dup1\n      swap2\n      sub\n      swap1\n      revert\n    tag_38:\n        /* \"contracts/process.sol\":2425:2457  MintParams memory modifiedParams */\n      0x00\n        /* \"contracts/process.sol\":2460:2466  params */\n      dup5\n        /* \"contracts/process.sol\":2425:2466  MintParams memory modifiedParams = params */\n      dup1\n      calldatasize\n      sub\n      dup2\n      add\n      swap1\n      tag_41\n      swap2\n      swap1\n      tag_42\n      jump\t// in\n    tag_41:\n      swap1\n      pop\n        /* \"contracts/process.sol\":2504:2514  msg.sender */\n      caller\n        /* \"contracts/process.sol\":2477:2491  modifiedParams */\n      dup2\n        /* \"contracts/process.sol\":2477:2501  modifiedParams.recipient */\n      0x0120\n      add\n        /* \"contracts/process.sol\":2477:2514  modifiedParams.recipient = msg.sender */\n      swap1\n      0xffffffffffffffffffffffffffffffffffffffff\n      and\n      swap1\n      dup2\n      0xffffffffffffffffffffffffffffffffffffffff\n      and\n      dup2\n      mstore\n      pop\n      pop\n        /* \"contracts/process.sol\":2614:2627  token0Address */\n      dup4\n        /* \"contracts/process.sol\":2607:2636  IERC20(token0Address).approve */\n      0xffffffffffffffffffffffffffffffffffffffff\n      and\n      0x095ea7b3\n        /* \"contracts/process.sol\":2645:2665  externalContractMint */\n      0x00\n      dup1\n      sload\n      swap1\n      0x0100\n      exp\n      swap1\n      div\n      0xffffffffffffffffffffffffffffffffffffffff\n      and\n        /* \"contracts/process.sol\":2668:2682  modifiedParams */\n      dup4\n        /* \"contracts/process.sol\":2668:2697  modifiedParams.amount0Desired */\n      0xa0\n      add\n      mload\n        /* \"contracts/process.sol\":2607:2698  IERC20(token0Address).approve(address(externalContractMint), modifiedParams.amount0Desired) */\n      mload(0x40)\n      dup4\n      0xffffffff\n      and\n      0xe0\n      shl\n      dup2\n      mstore\n      0x04\n      add\n      tag_43\n      swap3\n      swap2\n      swap1\n      tag_44\n      jump\t// in\n    tag_43:\n      0x20\n      mload(0x40)\n      dup1\n      dup4\n      sub\n      dup2\n      0x00\n      dup8\n      dup1\n      extcodesize\n      iszero\n      dup1\n      iszero\n      tag_45\n      jumpi\n      0x00\n      dup1\n      revert\n    tag_45:\n      pop\n      gas\n      call\n      iszero\n      dup1\n      iszero\n      tag_47\n      jumpi\n      returndatasize\n      0x00\n      dup1\n      returndatacopy\n      revert(0x00, returndatasize)\n    tag_47:\n      pop\n      pop\n      pop\n      pop\n      mload(0x40)\n      returndatasize\n      not(0x1f)\n      0x1f\n      dup3\n      add\n      and\n      dup3\n      add\n      dup1\n      0x40\n      mstore\n      pop\n      dup2\n      add\n      swap1\n      tag_48\n      swap2\n      swap1\n      tag_36\n      jump\t// in\n    tag_48:\n      pop\n        /* \"contracts/process.sol\":2716:2729  token1Address */\n      dup3\n        /* \"contracts/process.sol\":2709:2738  IERC20(token1Address).approve */\n      0xffffffffffffffffffffffffffffffffffffffff\n      and\n      0x095ea7b3\n        /* \"contracts/process.sol\":2747:2767  externalContractMint */\n      0x00\n      dup1\n      sload\n      swap1\n      0x0100\n      exp\n      swap1\n      div\n      0xffffffffffffffffffffffffffffffffffffffff\n      and\n        /* \"contracts/process.sol\":2770:2784  modifiedParams */\n      dup4\n        /* \"contracts/process.sol\":2770:2799  modifiedParams.amount1Desired */\n      0xc0\n      add\n      mload\n        /* \"contracts/process.sol\":2709:2800  IERC20(token1Address).approve(address(externalContractMint), modifiedParams.amount1Desired) */\n      mload(0x40)\n      dup4\n      0xffffffff\n      and\n      0xe0\n      shl\n      dup2\n      mstore\n      0x04\n      add\n      tag_49\n      swap3\n      swap2\n      swap1\n      tag_44\n      jump\t// in\n    tag_49:\n      0x20\n      mload(0x40)\n      dup1\n      dup4\n      sub\n      dup2\n      0x00\n      dup8\n      dup1\n      extcodesize\n      iszero\n      dup1\n      iszero\n      tag_50\n      jumpi\n      0x00\n      dup1\n      revert\n    tag_50:\n      pop\n      gas\n      call\n      iszero\n      dup1\n      iszero\n      tag_52\n      jumpi\n      returndatasize\n      0x00\n      dup1\n      returndatacopy\n      revert(0x00, returndatasize)\n    tag_52:\n      pop\n      pop\n      pop\n      pop\n      mload(0x40)\n      returndatasize\n      not(0x1f)\n      0x1f\n      dup3\n      add\n      and\n      dup3\n      add\n      dup1\n      0x40\n      mstore\n      pop\n      dup2\n      add\n      swap1\n      tag_53\n      swap2\n      swap1\n      tag_36\n      jump\t// in\n    tag_53:\n      pop\n        /* \"contracts/process.sol\":2904:2924  externalContractMint */\n      0x00\n      dup1\n      sload\n      swap1\n      0x0100\n      exp\n      swap1\n      div\n      0xffffffffffffffffffffffffffffffffffffffff\n      and\n        /* \"contracts/process.sol\":2904:2929  externalContractMint.mint */\n      0xffffffffffffffffffffffffffffffffffffffff\n      and\n      0xb06fee8b\n        /* \"contracts/process.sol\":2937:2950  payableAmount */\n      dup8\n        /* \"contracts/process.sol\":2952:2965  payableAmount */\n      dup9\n        /* \"contracts/process.sol\":2967:2981  modifiedParams */\n      dup5\n        /* \"contracts/process.sol\":2904:2982  externalContractMint.mint{value: payableAmount}(payableAmount, modifiedParams) */\n      mload(0x40)\n      dup5\n      0xffffffff\n      and\n      0xe0\n      shl\n      dup2\n      mstore\n      0x04\n      add\n      tag_54\n      swap3\n      swap2\n      swap1\n      tag_55\n      jump\t// in\n    tag_54:\n      0x20\n      mload(0x40)\n      dup1\n      dup4\n      sub\n      dup2\n      dup6\n      dup9\n      dup1\n      extcodesize\n      iszero\n      dup1\n      iszero\n      tag_56\n      jumpi\n      0x00\n      dup1\n      revert\n    tag_56:\n      pop\n      gas\n      call\n      iszero\n      dup1\n      iszero\n      tag_58\n      jumpi\n      returndatasize\n      0x00\n      dup1\n      returndatacopy\n      revert(0x00, returndatasize)\n    tag_58:\n      pop\n      pop\n      pop\n      pop\n      pop\n      mload(0x40)\n      returndatasize\n      not(0x1f)\n      0x1f\n      dup3\n      add\n      and\n      dup3\n      add\n      dup1\n      0x40\n      mstore\n      pop\n      dup2\n      add\n      swap1\n      tag_59\n      swap2\n      swap1\n      tag_60\n      jump\t// in\n    tag_59:\n        /* \"contracts/process.sol\":2897:2982  return externalContractMint.mint{value: payableAmount}(payableAmount, modifiedParams) */\n      swap2\n      pop\n      pop\n        /* \"contracts/process.sol\":1956:2990  function callMint(\r... */\n      swap5\n      swap4\n      pop\n      pop\n      pop\n      pop\n      jump\t// out\n        /* \"#utility.yul\":7:146   */\n    tag_62:\n      0x00\n        /* \"#utility.yul\":91:97   */\n      dup2\n        /* \"#utility.yul\":78:98   */\n      calldataload\n        /* \"#utility.yul\":69:98   */\n      swap1\n      pop\n        /* \"#utility.yul\":107:140   */\n      tag_64\n        /* \"#utility.yul\":134:139   */\n      dup2\n        /* \"#utility.yul\":107:140   */\n      tag_65\n      jump\t// in\n    tag_64:\n        /* \"#utility.yul\":59:146   */\n      swap3\n      swap2\n      pop\n      pop\n      jump\t// out\n        /* \"#utility.yul\":152:289   */\n    tag_66:\n      0x00\n        /* \"#utility.yul\":237:243   */\n      dup2\n        /* \"#utility.yul\":231:244   */\n      mload\n        /* \"#utility.yul\":222:244   */\n      swap1\n      pop\n        /* \"#utility.yul\":253:283   */\n      tag_68\n        /* \"#utility.yul\":277:282   */\n      dup2\n        /* \"#utility.yul\":253:283   */\n      tag_69\n      jump\t// in\n    tag_68:\n        /* \"#utility.yul\":212:289   */\n      swap3\n      swap2\n      pop\n      pop\n      jump\t// out\n        /* \"#utility.yul\":295:430   */\n    tag_70:\n      0x00\n        /* \"#utility.yul\":377:383   */\n      dup2\n        /* \"#utility.yul\":364:384   */\n      calldataload\n        /* \"#utility.yul\":355:384   */\n      swap1\n      pop\n        /* \"#utility.yul\":393:424   */\n      tag_72\n        /* \"#utility.yul\":418:423   */\n      dup2\n        /* \"#utility.yul\":393:424   */\n      tag_73\n      jump\t// in\n    tag_72:\n        /* \"#utility.yul\":345:430   */\n      swap3\n      swap2\n      pop\n      pop\n      jump\t// out\n        /* \"#utility.yul\":461:627   */\n    tag_74:\n      0x00\n        /* \"#utility.yul\":576:579   */\n      0x0180\n        /* \"#utility.yul\":567:573   */\n      dup3\n        /* \"#utility.yul\":562:565   */\n      dup5\n        /* \"#utility.yul\":558:574   */\n      sub\n        /* \"#utility.yul\":554:580   */\n      slt\n        /* \"#utility.yul\":551:553   */\n      iszero\n      tag_76\n      jumpi\n        /* \"#utility.yul\":593:594   */\n      0x00\n        /* \"#utility.yul\":590:591   */\n      dup1\n        /* \"#utility.yul\":583:595   */\n      revert\n        /* \"#utility.yul\":551:553   */\n    tag_76:\n        /* \"#utility.yul\":615:621   */\n      dup2\n        /* \"#utility.yul\":606:621   */\n      swap1\n      pop\n        /* \"#utility.yul\":541:627   */\n      swap3\n      swap2\n      pop\n      pop\n      jump\t// out\n        /* \"#utility.yul\":658:2859   */\n    tag_77:\n      0x00\n        /* \"#utility.yul\":777:783   */\n      0x0180\n        /* \"#utility.yul\":765:774   */\n      dup3\n        /* \"#utility.yul\":760:763   */\n      dup5\n        /* \"#utility.yul\":756:775   */\n      sub\n        /* \"#utility.yul\":752:784   */\n      slt\n        /* \"#utility.yul\":749:751   */\n      iszero\n      tag_79\n      jumpi\n        /* \"#utility.yul\":797:798   */\n      0x00\n        /* \"#utility.yul\":794:795   */\n      dup1\n        /* \"#utility.yul\":787:799   */\n      revert\n        /* \"#utility.yul\":749:751   */\n    tag_79:\n        /* \"#utility.yul\":819:841   */\n      tag_80\n        /* \"#utility.yul\":834:840   */\n      0x0180\n        /* \"#utility.yul\":819:841   */\n      tag_81\n      jump\t// in\n    tag_80:\n        /* \"#utility.yul\":810:841   */\n      swap1\n      pop\n        /* \"#utility.yul\":902:903   */\n      0x00\n        /* \"#utility.yul\":942:991   */\n      tag_82\n        /* \"#utility.yul\":987:990   */\n      dup5\n        /* \"#utility.yul\":978:984   */\n      dup3\n        /* \"#utility.yul\":967:976   */\n      dup6\n        /* \"#utility.yul\":963:985   */\n      add\n        /* \"#utility.yul\":942:991   */\n      tag_62\n      jump\t// in\n    tag_82:\n        /* \"#utility.yul\":935:939   */\n      0x00\n        /* \"#utility.yul\":928:933   */\n      dup4\n        /* \"#utility.yul\":924:940   */\n      add\n        /* \"#utility.yul\":917:992   */\n      mstore\n        /* \"#utility.yul\":851:1003   */\n      pop\n        /* \"#utility.yul\":1064:1066   */\n      0x20\n        /* \"#utility.yul\":1105:1154   */\n      tag_83\n        /* \"#utility.yul\":1150:1153   */\n      dup5\n        /* \"#utility.yul\":1141:1147   */\n      dup3\n        /* \"#utility.yul\":1130:1139   */\n      dup6\n        /* \"#utility.yul\":1126:1148   */\n      add\n        /* \"#utility.yul\":1105:1154   */\n      tag_62\n      jump\t// in\n    tag_83:\n        /* \"#utility.yul\":1098:1102   */\n      0x20\n        /* \"#utility.yul\":1091:1096   */\n      dup4\n        /* \"#utility.yul\":1087:1103   */\n      add\n        /* \"#utility.yul\":1080:1155   */\n      mstore\n        /* \"#utility.yul\":1013:1166   */\n      pop\n        /* \"#utility.yul\":1232:1234   */\n      0x40\n        /* \"#utility.yul\":1273:1320   */\n      tag_84\n        /* \"#utility.yul\":1316:1319   */\n      dup5\n        /* \"#utility.yul\":1307:1313   */\n      dup3\n        /* \"#utility.yul\":1296:1305   */\n      dup6\n        /* \"#utility.yul\":1292:1314   */\n      add\n        /* \"#utility.yul\":1273:1320   */\n      tag_70\n      jump\t// in\n    tag_84:\n        /* \"#utility.yul\":1266:1270   */\n      0x40\n        /* \"#utility.yul\":1259:1264   */\n      dup4\n        /* \"#utility.yul\":1255:1271   */\n      add\n        /* \"#utility.yul\":1248:1321   */\n      mstore\n        /* \"#utility.yul\":1176:1332   */\n      pop\n        /* \"#utility.yul\":1396:1398   */\n      0x60\n        /* \"#utility.yul\":1437:1484   */\n      tag_85\n        /* \"#utility.yul\":1480:1483   */\n      dup5\n        /* \"#utility.yul\":1471:1477   */\n      dup3\n        /* \"#utility.yul\":1460:1469   */\n      dup6\n        /* \"#utility.yul\":1456:1478   */\n      add\n        /* \"#utility.yul\":1437:1484   */\n      tag_70\n      jump\t// in\n    tag_85:\n        /* \"#utility.yul\":1430:1434   */\n      0x60\n        /* \"#utility.yul\":1423:1428   */\n      dup4\n        /* \"#utility.yul\":1419:1435   */\n      add\n        /* \"#utility.yul\":1412:1485   */\n      mstore\n        /* \"#utility.yul\":1342:1496   */\n      pop\n        /* \"#utility.yul\":1560:1563   */\n      0x80\n        /* \"#utility.yul\":1602:1649   */\n      tag_86\n        /* \"#utility.yul\":1645:1648   */\n      dup5\n        /* \"#utility.yul\":1636:1642   */\n      dup3\n        /* \"#utility.yul\":1625:1634   */\n      dup6\n        /* \"#utility.yul\":1621:1643   */\n      add\n        /* \"#utility.yul\":1602:1649   */\n      tag_70\n      jump\t// in\n    tag_86:\n        /* \"#utility.yul\":1595:1599   */\n      0x80\n        /* \"#utility.yul\":1588:1593   */\n      dup4\n        /* \"#utility.yul\":1584:1600   */\n      add\n        /* \"#utility.yul\":1577:1650   */\n      mstore\n        /* \"#utility.yul\":1506:1661   */\n      pop\n        /* \"#utility.yul\":1730:1733   */\n      0xa0\n        /* \"#utility.yul\":1772:1821   */\n      tag_87\n        /* \"#utility.yul\":1817:1820   */\n      dup5\n        /* \"#utility.yul\":1808:1814   */\n      dup3\n        /* \"#utility.yul\":1797:1806   */\n      dup6\n        /* \"#utility.yul\":1793:1815   */\n      add\n        /* \"#utility.yul\":1772:1821   */\n      tag_88\n      jump\t// in\n    tag_87:\n        /* \"#utility.yul\":1765:1769   */\n      0xa0\n        /* \"#utility.yul\":1758:1763   */\n      dup4\n        /* \"#utility.yul\":1754:1770   */\n      add\n        /* \"#utility.yul\":1747:1822   */\n      mstore\n        /* \"#utility.yul\":1671:1833   */\n      pop\n        /* \"#utility.yul\":1902:1905   */\n      0xc0\n        /* \"#utility.yul\":1944:1993   */\n      tag_89\n        /* \"#utility.yul\":1989:1992   */\n      dup5\n        /* \"#utility.yul\":1980:1986   */\n      dup3\n        /* \"#utility.yul\":1969:1978   */\n      dup6\n        /* \"#utility.yul\":1965:1987   */\n      add\n        /* \"#utility.yul\":1944:1993   */\n      tag_88\n      jump\t// in\n    tag_89:\n        /* \"#utility.yul\":1937:1941   */\n      0xc0\n        /* \"#utility.yul\":1930:1935   */\n      dup4\n        /* \"#utility.yul\":1926:1942   */\n      add\n        /* \"#utility.yul\":1919:1994   */\n      mstore\n        /* \"#utility.yul\":1843:2005   */\n      pop\n        /* \"#utility.yul\":2070:2073   */\n      0xe0\n        /* \"#utility.yul\":2112:2161   */\n      tag_90\n        /* \"#utility.yul\":2157:2160   */\n      dup5\n        /* \"#utility.yul\":2148:2154   */\n      dup3\n        /* \"#utility.yul\":2137:2146   */\n      dup6\n        /* \"#utility.yul\":2133:2155   */\n      add\n        /* \"#utility.yul\":2112:2161   */\n      tag_88\n      jump\t// in\n    tag_90:\n        /* \"#utility.yul\":2105:2109   */\n      0xe0\n        /* \"#utility.yul\":2098:2103   */\n      dup4\n        /* \"#utility.yul\":2094:2110   */\n      add\n        /* \"#utility.yul\":2087:2162   */\n      mstore\n        /* \"#utility.yul\":2015:2173   */\n      pop\n        /* \"#utility.yul\":2238:2241   */\n      0x0100\n        /* \"#utility.yul\":2282:2331   */\n      tag_91\n        /* \"#utility.yul\":2327:2330   */\n      dup5\n        /* \"#utility.yul\":2318:2324   */\n      dup3\n        /* \"#utility.yul\":2307:2316   */\n      dup6\n        /* \"#utility.yul\":2303:2325   */\n      add\n        /* \"#utility.yul\":2282:2331   */\n      tag_88\n      jump\t// in\n    tag_91:\n        /* \"#utility.yul\":2273:2279   */\n      0x0100\n        /* \"#utility.yul\":2266:2271   */\n      dup4\n        /* \"#utility.yul\":2262:2280   */\n      add\n        /* \"#utility.yul\":2255:2332   */\n      mstore\n        /* \"#utility.yul\":2183:2343   */\n      pop\n        /* \"#utility.yul\":2407:2410   */\n      0x0120\n        /* \"#utility.yul\":2451:2500   */\n      tag_92\n        /* \"#utility.yul\":2496:2499   */\n      dup5\n        /* \"#utility.yul\":2487:2493   */\n      dup3\n        /* \"#utility.yul\":2476:2485   */\n      dup6\n        /* \"#utility.yul\":2472:2494   */\n      add\n        /* \"#utility.yul\":2451:2500   */\n      tag_62\n      jump\t// in\n    tag_92:\n        /* \"#utility.yul\":2442:2448   */\n      0x0120\n        /* \"#utility.yul\":2435:2440   */\n      dup4\n        /* \"#utility.yul\":2431:2449   */\n      add\n        /* \"#utility.yul\":2424:2501   */\n      mstore\n        /* \"#utility.yul\":2353:2512   */\n      pop\n        /* \"#utility.yul\":2575:2578   */\n      0x0140\n        /* \"#utility.yul\":2619:2668   */\n      tag_93\n        /* \"#utility.yul\":2664:2667   */\n      dup5\n        /* \"#utility.yul\":2655:2661   */\n      dup3\n        /* \"#utility.yul\":2644:2653   */\n      dup6\n        /* \"#utility.yul\":2640:2662   */\n      add\n        /* \"#utility.yul\":2619:2668   */\n      tag_88\n      jump\t// in\n    tag_93:\n        /* \"#utility.yul\":2610:2616   */\n      0x0140\n        /* \"#utility.yul\":2603:2608   */\n      dup4\n        /* \"#utility.yul\":2599:2617   */\n      add\n        /* \"#utility.yul\":2592:2669   */\n      mstore\n        /* \"#utility.yul\":2522:2680   */\n      pop\n        /* \"#utility.yul\":2747:2750   */\n      0x0160\n        /* \"#utility.yul\":2791:2840   */\n      tag_94\n        /* \"#utility.yul\":2836:2839   */\n      dup5\n        /* \"#utility.yul\":2827:2833   */\n      dup3\n        /* \"#utility.yul\":2816:2825   */\n      dup6\n        /* \"#utility.yul\":2812:2834   */\n      add\n        /* \"#utility.yul\":2791:2840   */\n      tag_95\n      jump\t// in\n    tag_94:\n        /* \"#utility.yul\":2782:2788   */\n      0x0160\n        /* \"#utility.yul\":2775:2780   */\n      dup4\n        /* \"#utility.yul\":2771:2789   */\n      add\n        /* \"#utility.yul\":2764:2841   */\n      mstore\n        /* \"#utility.yul\":2690:2852   */\n      pop\n        /* \"#utility.yul\":739:2859   */\n      swap3\n      swap2\n      pop\n      pop\n      jump\t// out\n        /* \"#utility.yul\":2865:3004   */\n    tag_95:\n      0x00\n        /* \"#utility.yul\":2949:2955   */\n      dup2\n        /* \"#utility.yul\":2936:2956   */\n      calldataload\n        /* \"#utility.yul\":2927:2956   */\n      swap1\n      pop\n        /* \"#utility.yul\":2965:2998   */\n      tag_97\n        /* \"#utility.yul\":2992:2997   */\n      dup2\n        /* \"#utility.yul\":2965:2998   */\n      tag_98\n      jump\t// in\n    tag_97:\n        /* \"#utility.yul\":2917:3004   */\n      swap3\n      swap2\n      pop\n      pop\n      jump\t// out\n        /* \"#utility.yul\":3010:3149   */\n    tag_88:\n      0x00\n        /* \"#utility.yul\":3094:3100   */\n      dup2\n        /* \"#utility.yul\":3081:3101   */\n      calldataload\n        /* \"#utility.yul\":3072:3101   */\n      swap1\n      pop\n        /* \"#utility.yul\":3110:3143   */\n      tag_100\n        /* \"#utility.yul\":3137:3142   */\n      dup2\n        /* \"#utility.yul\":3110:3143   */\n      tag_101\n      jump\t// in\n    tag_100:\n        /* \"#utility.yul\":3062:3149   */\n      swap3\n      swap2\n      pop\n      pop\n      jump\t// out\n        /* \"#utility.yul\":3155:3298   */\n    tag_102:\n      0x00\n        /* \"#utility.yul\":3243:3249   */\n      dup2\n        /* \"#utility.yul\":3237:3250   */\n      mload\n        /* \"#utility.yul\":3228:3250   */\n      swap1\n      pop\n        /* \"#utility.yul\":3259:3292   */\n      tag_104\n        /* \"#utility.yul\":3286:3291   */\n      dup2\n        /* \"#utility.yul\":3259:3292   */\n      tag_101\n      jump\t// in\n    tag_104:\n        /* \"#utility.yul\":3218:3298   */\n      swap3\n      swap2\n      pop\n      pop\n      jump\t// out\n        /* \"#utility.yul\":3304:3582   */\n    tag_36:\n      0x00\n        /* \"#utility.yul\":3420:3422   */\n      0x20\n        /* \"#utility.yul\":3408:3417   */\n      dup3\n        /* \"#utility.yul\":3399:3406   */\n      dup5\n        /* \"#utility.yul\":3395:3418   */\n      sub\n        /* \"#utility.yul\":3391:3423   */\n      slt\n        /* \"#utility.yul\":3388:3390   */\n      iszero\n      tag_106\n      jumpi\n        /* \"#utility.yul\":3436:3437   */\n      0x00\n        /* \"#utility.yul\":3433:3434   */\n      dup1\n        /* \"#utility.yul\":3426:3438   */\n      revert\n        /* \"#utility.yul\":3388:3390   */\n    tag_106:\n        /* \"#utility.yul\":3479:3480   */\n      0x00\n        /* \"#utility.yul\":3504:3565   */\n      tag_107\n        /* \"#utility.yul\":3557:3564   */\n      dup5\n        /* \"#utility.yul\":3548:3554   */\n      dup3\n        /* \"#utility.yul\":3537:3546   */\n      dup6\n        /* \"#utility.yul\":3533:3555   */\n      add\n        /* \"#utility.yul\":3504:3565   */\n      tag_66\n      jump\t// in\n    tag_107:\n        /* \"#utility.yul\":3494:3565   */\n      swap2\n      pop\n        /* \"#utility.yul\":3450:3575   */\n      pop\n        /* \"#utility.yul\":3378:3582   */\n      swap3\n      swap2\n      pop\n      pop\n      jump\t// out\n        /* \"#utility.yul\":3588:3903   */\n    tag_42:\n      0x00\n        /* \"#utility.yul\":3722:3725   */\n      0x0180\n        /* \"#utility.yul\":3710:3719   */\n      dup3\n        /* \"#utility.yul\":3701:3708   */\n      dup5\n        /* \"#utility.yul\":3697:3720   */\n      sub\n        /* \"#utility.yul\":3693:3726   */\n      slt\n        /* \"#utility.yul\":3690:3692   */\n      iszero\n      tag_109\n      jumpi\n        /* \"#utility.yul\":3739:3740   */\n      0x00\n        /* \"#utility.yul\":3736:3737   */\n      dup1\n        /* \"#utility.yul\":3729:3741   */\n      revert\n        /* \"#utility.yul\":3690:3692   */\n    tag_109:\n        /* \"#utility.yul\":3782:3783   */\n      0x00\n        /* \"#utility.yul\":3807:3886   */\n      tag_110\n        /* \"#utility.yul\":3878:3885   */\n      dup5\n        /* \"#utility.yul\":3869:3875   */\n      dup3\n        /* \"#utility.yul\":3858:3867   */\n      dup6\n        /* \"#utility.yul\":3854:3876   */\n      add\n        /* \"#utility.yul\":3807:3886   */\n      tag_77\n      jump\t// in\n    tag_110:\n        /* \"#utility.yul\":3797:3886   */\n      swap2\n      pop\n        /* \"#utility.yul\":3753:3896   */\n      pop\n        /* \"#utility.yul\":3680:3903   */\n      swap3\n      swap2\n      pop\n      pop\n      jump\t// out\n        /* \"#utility.yul\":3909:4171   */\n    tag_19:\n      0x00\n        /* \"#utility.yul\":4017:4019   */\n      0x20\n        /* \"#utility.yul\":4005:4014   */\n      dup3\n        /* \"#utility.yul\":3996:4003   */\n      dup5\n        /* \"#utility.yul\":3992:4015   */\n      sub\n        /* \"#utility.yul\":3988:4020   */\n      slt\n        /* \"#utility.yul\":3985:3987   */\n      iszero\n      tag_112\n      jumpi\n        /* \"#utility.yul\":4033:4034   */\n      0x00\n        /* \"#utility.yul\":4030:4031   */\n      dup1\n        /* \"#utility.yul\":4023:4035   */\n      revert\n        /* \"#utility.yul\":3985:3987   */\n    tag_112:\n        /* \"#utility.yul\":4076:4077   */\n      0x00\n        /* \"#utility.yul\":4101:4154   */\n      tag_113\n        /* \"#utility.yul\":4146:4153   */\n      dup5\n        /* \"#utility.yul\":4137:4143   */\n      dup3\n        /* \"#utility.yul\":4126:4135   */\n      dup6\n        /* \"#utility.yul\":4122:4144   */\n      add\n        /* \"#utility.yul\":4101:4154   */\n      tag_88\n      jump\t// in\n    tag_113:\n        /* \"#utility.yul\":4091:4154   */\n      swap2\n      pop\n        /* \"#utility.yul\":4047:4164   */\n      pop\n        /* \"#utility.yul\":3975:4171   */\n      swap3\n      swap2\n      pop\n      pop\n      jump\t// out\n        /* \"#utility.yul\":4177:4461   */\n    tag_60:\n      0x00\n        /* \"#utility.yul\":4296:4298   */\n      0x20\n        /* \"#utility.yul\":4284:4293   */\n      dup3\n        /* \"#utility.yul\":4275:4282   */\n      dup5\n        /* \"#utility.yul\":4271:4294   */\n      sub\n        /* \"#utility.yul\":4267:4299   */\n      slt\n        /* \"#utility.yul\":4264:4266   */\n      iszero\n      tag_115\n      jumpi\n        /* \"#utility.yul\":4312:4313   */\n      0x00\n        /* \"#utility.yul\":4309:4310   */\n      dup1\n        /* \"#utility.yul\":4302:4314   */\n      revert\n        /* \"#utility.yul\":4264:4266   */\n    tag_115:\n        /* \"#utility.yul\":4355:4356   */\n      0x00\n        /* \"#utility.yul\":4380:4444   */\n      tag_116\n        /* \"#utility.yul\":4436:4443   */\n      dup5\n        /* \"#utility.yul\":4427:4433   */\n      dup3\n        /* \"#utility.yul\":4416:4425   */\n      dup6\n        /* \"#utility.yul\":4412:4434   */\n      add\n        /* \"#utility.yul\":4380:4444   */\n      tag_102\n      jump\t// in\n    tag_116:\n        /* \"#utility.yul\":4370:4444   */\n      swap2\n      pop\n        /* \"#utility.yul\":4326:4454   */\n      pop\n        /* \"#utility.yul\":4254:4461   */\n      swap3\n      swap2\n      pop\n      pop\n      jump\t// out\n        /* \"#utility.yul\":4467:5223   */\n    tag_25:\n      0x00\n      dup1\n      0x00\n      dup1\n        /* \"#utility.yul\":4654:4657   */\n      0x01e0\n        /* \"#utility.yul\":4642:4651   */\n      dup6\n        /* \"#utility.yul\":4633:4640   */\n      dup8\n        /* \"#utility.yul\":4629:4652   */\n      sub\n        /* \"#utility.yul\":4625:4658   */\n      slt\n        /* \"#utility.yul\":4622:4624   */\n      iszero\n      tag_118\n      jumpi\n        /* \"#utility.yul\":4671:4672   */\n      0x00\n        /* \"#utility.yul\":4668:4669   */\n      dup1\n        /* \"#utility.yul\":4661:4673   */\n      revert\n        /* \"#utility.yul\":4622:4624   */\n    tag_118:\n        /* \"#utility.yul\":4714:4715   */\n      0x00\n        /* \"#utility.yul\":4739:4792   */\n      tag_119\n        /* \"#utility.yul\":4784:4791   */\n      dup8\n        /* \"#utility.yul\":4775:4781   */\n      dup3\n        /* \"#utility.yul\":4764:4773   */\n      dup9\n        /* \"#utility.yul\":4760:4782   */\n      add\n        /* \"#utility.yul\":4739:4792   */\n      tag_88\n      jump\t// in\n    tag_119:\n        /* \"#utility.yul\":4729:4792   */\n      swap5\n      pop\n        /* \"#utility.yul\":4685:4802   */\n      pop\n        /* \"#utility.yul\":4841:4843   */\n      0x20\n        /* \"#utility.yul\":4867:4948   */\n      tag_120\n        /* \"#utility.yul\":4940:4947   */\n      dup8\n        /* \"#utility.yul\":4931:4937   */\n      dup3\n        /* \"#utility.yul\":4920:4929   */\n      dup9\n        /* \"#utility.yul\":4916:4938   */\n      add\n        /* \"#utility.yul\":4867:4948   */\n      tag_74\n      jump\t// in\n    tag_120:\n        /* \"#utility.yul\":4857:4948   */\n      swap4\n      pop\n        /* \"#utility.yul\":4812:4958   */\n      pop\n        /* \"#utility.yul\":4997:5000   */\n      0x01a0\n        /* \"#utility.yul\":5024:5077   */\n      tag_121\n        /* \"#utility.yul\":5069:5076   */\n      dup8\n        /* \"#utility.yul\":5060:5066   */\n      dup3\n        /* \"#utility.yul\":5049:5058   */\n      dup9\n        /* \"#utility.yul\":5045:5067   */\n      add\n        /* \"#utility.yul\":5024:5077   */\n      tag_62\n      jump\t// in\n    tag_121:\n        /* \"#utility.yul\":5014:5077   */\n      swap3\n      pop\n        /* \"#utility.yul\":4968:5087   */\n      pop\n        /* \"#utility.yul\":5126:5129   */\n      0x01c0\n        /* \"#utility.yul\":5153:5206   */\n      tag_122\n        /* \"#utility.yul\":5198:5205   */\n      dup8\n        /* \"#utility.yul\":5189:5195   */\n      dup3\n        /* \"#utility.yul\":5178:5187   */\n      dup9\n        /* \"#utility.yul\":5174:5196   */\n      add\n        /* \"#utility.yul\":5153:5206   */\n      tag_62\n      jump\t// in\n    tag_122:\n        /* \"#utility.yul\":5143:5206   */\n      swap2\n      pop\n        /* \"#utility.yul\":5097:5216   */\n      pop\n        /* \"#utility.yul\":4612:5223   */\n      swap3\n      swap6\n      swap2\n      swap5\n      pop\n      swap3\n      pop\n      jump\t// out\n        /* \"#utility.yul\":5229:5376   */\n    tag_123:\n        /* \"#utility.yul\":5324:5369   */\n      tag_125\n        /* \"#utility.yul\":5363:5368   */\n      dup2\n        /* \"#utility.yul\":5324:5369   */\n      tag_126\n      jump\t// in\n    tag_125:\n        /* \"#utility.yul\":5319:5322   */\n      dup3\n        /* \"#utility.yul\":5312:5370   */\n      mstore\n        /* \"#utility.yul\":5302:5376   */\n      pop\n      pop\n      jump\t// out\n        /* \"#utility.yul\":5382:5490   */\n    tag_127:\n        /* \"#utility.yul\":5459:5483   */\n      tag_129\n        /* \"#utility.yul\":5477:5482   */\n      dup2\n        /* \"#utility.yul\":5459:5483   */\n      tag_130\n      jump\t// in\n    tag_129:\n        /* \"#utility.yul\":5454:5457   */\n      dup3\n        /* \"#utility.yul\":5447:5484   */\n      mstore\n        /* \"#utility.yul\":5437:5490   */\n      pop\n      pop\n      jump\t// out\n        /* \"#utility.yul\":5496:5614   */\n    tag_131:\n        /* \"#utility.yul\":5583:5607   */\n      tag_133\n        /* \"#utility.yul\":5601:5606   */\n      dup2\n        /* \"#utility.yul\":5583:5607   */\n      tag_130\n      jump\t// in\n    tag_133:\n        /* \"#utility.yul\":5578:5581   */\n      dup3\n        /* \"#utility.yul\":5571:5608   */\n      mstore\n        /* \"#utility.yul\":5561:5614   */\n      pop\n      pop\n      jump\t// out\n        /* \"#utility.yul\":5620:5729   */\n    tag_134:\n        /* \"#utility.yul\":5701:5722   */\n      tag_136\n        /* \"#utility.yul\":5716:5721   */\n      dup2\n        /* \"#utility.yul\":5701:5722   */\n      tag_137\n      jump\t// in\n    tag_136:\n        /* \"#utility.yul\":5696:5699   */\n      dup3\n        /* \"#utility.yul\":5689:5723   */\n      mstore\n        /* \"#utility.yul\":5679:5729   */\n      pop\n      pop\n      jump\t// out\n        /* \"#utility.yul\":5735:5928   */\n    tag_138:\n        /* \"#utility.yul\":5853:5921   */\n      tag_140\n        /* \"#utility.yul\":5915:5920   */\n      dup2\n        /* \"#utility.yul\":5853:5921   */\n      tag_141\n      jump\t// in\n    tag_140:\n        /* \"#utility.yul\":5848:5851   */\n      dup3\n        /* \"#utility.yul\":5841:5922   */\n      mstore\n        /* \"#utility.yul\":5831:5928   */\n      pop\n      pop\n      jump\t// out\n        /* \"#utility.yul\":5934:6121   */\n    tag_142:\n        /* \"#utility.yul\":6049:6114   */\n      tag_144\n        /* \"#utility.yul\":6108:6113   */\n      dup2\n        /* \"#utility.yul\":6049:6114   */\n      tag_145\n      jump\t// in\n    tag_144:\n        /* \"#utility.yul\":6044:6047   */\n      dup3\n        /* \"#utility.yul\":6037:6115   */\n      mstore\n        /* \"#utility.yul\":6027:6121   */\n      pop\n      pop\n      jump\t// out\n        /* \"#utility.yul\":6127:6229   */\n    tag_146:\n        /* \"#utility.yul\":6200:6222   */\n      tag_148\n        /* \"#utility.yul\":6216:6221   */\n      dup2\n        /* \"#utility.yul\":6200:6222   */\n      tag_149\n      jump\t// in\n    tag_148:\n        /* \"#utility.yul\":6195:6198   */\n      dup3\n        /* \"#utility.yul\":6188:6223   */\n      mstore\n        /* \"#utility.yul\":6178:6229   */\n      pop\n      pop\n      jump\t// out\n        /* \"#utility.yul\":6235:6553   */\n    tag_150:\n      0x00\n        /* \"#utility.yul\":6398:6465   */\n      tag_152\n        /* \"#utility.yul\":6462:6464   */\n      0x14\n        /* \"#utility.yul\":6457:6460   */\n      dup4\n        /* \"#utility.yul\":6398:6465   */\n      tag_153\n      jump\t// in\n    tag_152:\n        /* \"#utility.yul\":6391:6465   */\n      swap2\n      pop\n        /* \"#utility.yul\":6495:6517   */\n      0x496e636f72726563742045746865722073656e74000000000000000000000000\n        /* \"#utility.yul\":6491:6492   */\n      0x00\n        /* \"#utility.yul\":6486:6489   */\n      dup4\n        /* \"#utility.yul\":6482:6493   */\n      add\n        /* \"#utility.yul\":6475:6518   */\n      mstore\n        /* \"#utility.yul\":6544:6546   */\n      0x20\n        /* \"#utility.yul\":6539:6542   */\n      dup3\n        /* \"#utility.yul\":6535:6547   */\n      add\n        /* \"#utility.yul\":6528:6547   */\n      swap1\n      pop\n        /* \"#utility.yul\":6381:6553   */\n      swap2\n      swap1\n      pop\n      jump\t// out\n        /* \"#utility.yul\":6605:8930   */\n    tag_154:\n        /* \"#utility.yul\":6754:6760   */\n      0x0180\n        /* \"#utility.yul\":6749:6752   */\n      dup3\n        /* \"#utility.yul\":6745:6761   */\n      add\n        /* \"#utility.yul\":6845:6849   */\n      0x00\n        /* \"#utility.yul\":6838:6843   */\n      dup3\n        /* \"#utility.yul\":6834:6850   */\n      add\n        /* \"#utility.yul\":6828:6851   */\n      mload\n        /* \"#utility.yul\":6864:6927   */\n      tag_156\n        /* \"#utility.yul\":6921:6925   */\n      0x00\n        /* \"#utility.yul\":6916:6919   */\n      dup6\n        /* \"#utility.yul\":6912:6926   */\n      add\n        /* \"#utility.yul\":6898:6910   */\n      dup3\n        /* \"#utility.yul\":6864:6927   */\n      tag_127\n      jump\t// in\n    tag_156:\n        /* \"#utility.yul\":6771:6937   */\n      pop\n        /* \"#utility.yul\":7021:7025   */\n      0x20\n        /* \"#utility.yul\":7014:7019   */\n      dup3\n        /* \"#utility.yul\":7010:7026   */\n      add\n        /* \"#utility.yul\":7004:7027   */\n      mload\n        /* \"#utility.yul\":7040:7103   */\n      tag_157\n        /* \"#utility.yul\":7097:7101   */\n      0x20\n        /* \"#utility.yul\":7092:7095   */\n      dup6\n        /* \"#utility.yul\":7088:7102   */\n      add\n        /* \"#utility.yul\":7074:7086   */\n      dup3\n        /* \"#utility.yul\":7040:7103   */\n      tag_127\n      jump\t// in\n    tag_157:\n        /* \"#utility.yul\":6947:7113   */\n      pop\n        /* \"#utility.yul\":7202:7206   */\n      0x40\n        /* \"#utility.yul\":7195:7200   */\n      dup3\n        /* \"#utility.yul\":7191:7207   */\n      add\n        /* \"#utility.yul\":7185:7208   */\n      mload\n        /* \"#utility.yul\":7221:7280   */\n      tag_158\n        /* \"#utility.yul\":7274:7278   */\n      0x40\n        /* \"#utility.yul\":7269:7272   */\n      dup6\n        /* \"#utility.yul\":7265:7279   */\n      add\n        /* \"#utility.yul\":7251:7263   */\n      dup3\n        /* \"#utility.yul\":7221:7280   */\n      tag_146\n      jump\t// in\n    tag_158:\n        /* \"#utility.yul\":7123:7290   */\n      pop\n        /* \"#utility.yul\":7377:7381   */\n      0x60\n        /* \"#utility.yul\":7370:7375   */\n      dup3\n        /* \"#utility.yul\":7366:7382   */\n      add\n        /* \"#utility.yul\":7360:7383   */\n      mload\n        /* \"#utility.yul\":7396:7455   */\n      tag_159\n        /* \"#utility.yul\":7449:7453   */\n      0x60\n        /* \"#utility.yul\":7444:7447   */\n      dup6\n        /* \"#utility.yul\":7440:7454   */\n      add\n        /* \"#utility.yul\":7426:7438   */\n      dup3\n        /* \"#utility.yul\":7396:7455   */\n      tag_146\n      jump\t// in\n    tag_159:\n        /* \"#utility.yul\":7300:7465   */\n      pop\n        /* \"#utility.yul\":7552:7556   */\n      0x80\n        /* \"#utility.yul\":7545:7550   */\n      dup3\n        /* \"#utility.yul\":7541:7557   */\n      add\n        /* \"#utility.yul\":7535:7558   */\n      mload\n        /* \"#utility.yul\":7571:7630   */\n      tag_160\n        /* \"#utility.yul\":7624:7628   */\n      0x80\n        /* \"#utility.yul\":7619:7622   */\n      dup6\n        /* \"#utility.yul\":7615:7629   */\n      add\n        /* \"#utility.yul\":7601:7613   */\n      dup3\n        /* \"#utility.yul\":7571:7630   */\n      tag_146\n      jump\t// in\n    tag_160:\n        /* \"#utility.yul\":7475:7640   */\n      pop\n        /* \"#utility.yul\":7732:7736   */\n      0xa0\n        /* \"#utility.yul\":7725:7730   */\n      dup3\n        /* \"#utility.yul\":7721:7737   */\n      add\n        /* \"#utility.yul\":7715:7738   */\n      mload\n        /* \"#utility.yul\":7751:7814   */\n      tag_161\n        /* \"#utility.yul\":7808:7812   */\n      0xa0\n        /* \"#utility.yul\":7803:7806   */\n      dup6\n        /* \"#utility.yul\":7799:7813   */\n      add\n        /* \"#utility.yul\":7785:7797   */\n      dup3\n        /* \"#utility.yul\":7751:7814   */\n      tag_162\n      jump\t// in\n    tag_161:\n        /* \"#utility.yul\":7650:7824   */\n      pop\n        /* \"#utility.yul\":7916:7920   */\n      0xc0\n        /* \"#utility.yul\":7909:7914   */\n      dup3\n        /* \"#utility.yul\":7905:7921   */\n      add\n        /* \"#utility.yul\":7899:7922   */\n      mload\n        /* \"#utility.yul\":7935:7998   */\n      tag_163\n        /* \"#utility.yul\":7992:7996   */\n      0xc0\n        /* \"#utility.yul\":7987:7990   */\n      dup6\n        /* \"#utility.yul\":7983:7997   */\n      add\n        /* \"#utility.yul\":7969:7981   */\n      dup3\n        /* \"#utility.yul\":7935:7998   */\n      tag_162\n      jump\t// in\n    tag_163:\n        /* \"#utility.yul\":7834:8008   */\n      pop\n        /* \"#utility.yul\":8096:8100   */\n      0xe0\n        /* \"#utility.yul\":8089:8094   */\n      dup3\n        /* \"#utility.yul\":8085:8101   */\n      add\n        /* \"#utility.yul\":8079:8102   */\n      mload\n        /* \"#utility.yul\":8115:8178   */\n      tag_164\n        /* \"#utility.yul\":8172:8176   */\n      0xe0\n        /* \"#utility.yul\":8167:8170   */\n      dup6\n        /* \"#utility.yul\":8163:8177   */\n      add\n        /* \"#utility.yul\":8149:8161   */\n      dup3\n        /* \"#utility.yul\":8115:8178   */\n      tag_162\n      jump\t// in\n    tag_164:\n        /* \"#utility.yul\":8018:8188   */\n      pop\n        /* \"#utility.yul\":8276:8282   */\n      0x0100\n        /* \"#utility.yul\":8269:8274   */\n      dup3\n        /* \"#utility.yul\":8265:8283   */\n      add\n        /* \"#utility.yul\":8259:8284   */\n      mload\n        /* \"#utility.yul\":8297:8362   */\n      tag_165\n        /* \"#utility.yul\":8354:8360   */\n      0x0100\n        /* \"#utility.yul\":8349:8352   */\n      dup6\n        /* \"#utility.yul\":8345:8361   */\n      add\n        /* \"#utility.yul\":8331:8343   */\n      dup3\n        /* \"#utility.yul\":8297:8362   */\n      tag_162\n      jump\t// in\n    tag_165:\n        /* \"#utility.yul\":8198:8372   */\n      pop\n        /* \"#utility.yul\":8459:8465   */\n      0x0120\n        /* \"#utility.yul\":8452:8457   */\n      dup3\n        /* \"#utility.yul\":8448:8466   */\n      add\n        /* \"#utility.yul\":8442:8467   */\n      mload\n        /* \"#utility.yul\":8480:8545   */\n      tag_166\n        /* \"#utility.yul\":8537:8543   */\n      0x0120\n        /* \"#utility.yul\":8532:8535   */\n      dup6\n        /* \"#utility.yul\":8528:8544   */\n      add\n        /* \"#utility.yul\":8514:8526   */\n      dup3\n        /* \"#utility.yul\":8480:8545   */\n      tag_127\n      jump\t// in\n    tag_166:\n        /* \"#utility.yul\":8382:8555   */\n      pop\n        /* \"#utility.yul\":8641:8647   */\n      0x0140\n        /* \"#utility.yul\":8634:8639   */\n      dup3\n        /* \"#utility.yul\":8630:8648   */\n      add\n        /* \"#utility.yul\":8624:8649   */\n      mload\n        /* \"#utility.yul\":8662:8727   */\n      tag_167\n        /* \"#utility.yul\":8719:8725   */\n      0x0140\n        /* \"#utility.yul\":8714:8717   */\n      dup6\n        /* \"#utility.yul\":8710:8726   */\n      add\n        /* \"#utility.yul\":8696:8708   */\n      dup3\n        /* \"#utility.yul\":8662:8727   */\n      tag_162\n      jump\t// in\n    tag_167:\n        /* \"#utility.yul\":8565:8737   */\n      pop\n        /* \"#utility.yul\":8827:8833   */\n      0x0160\n        /* \"#utility.yul\":8820:8825   */\n      dup3\n        /* \"#utility.yul\":8816:8834   */\n      add\n        /* \"#utility.yul\":8810:8835   */\n      mload\n        /* \"#utility.yul\":8848:8913   */\n      tag_168\n        /* \"#utility.yul\":8905:8911   */\n      0x0160\n        /* \"#utility.yul\":8900:8903   */\n      dup6\n        /* \"#utility.yul\":8896:8912   */\n      add\n        /* \"#utility.yul\":8882:8894   */\n      dup3\n        /* \"#utility.yul\":8848:8913   */\n      tag_169\n      jump\t// in\n    tag_168:\n        /* \"#utility.yul\":8747:8923   */\n      pop\n        /* \"#utility.yul\":6723:8930   */\n      pop\n      pop\n      pop\n      jump\t// out\n        /* \"#utility.yul\":8936:9044   */\n    tag_169:\n        /* \"#utility.yul\":9013:9037   */\n      tag_171\n        /* \"#utility.yul\":9031:9036   */\n      dup2\n        /* \"#utility.yul\":9013:9037   */\n      tag_172\n      jump\t// in\n    tag_171:\n        /* \"#utility.yul\":9008:9011   */\n      dup3\n        /* \"#utility.yul\":9001:9038   */\n      mstore\n        /* \"#utility.yul\":8991:9044   */\n      pop\n      pop\n      jump\t// out\n        /* \"#utility.yul\":9050:9158   */\n    tag_162:\n        /* \"#utility.yul\":9127:9151   */\n      tag_174\n        /* \"#utility.yul\":9145:9150   */\n      dup2\n        /* \"#utility.yul\":9127:9151   */\n      tag_175\n      jump\t// in\n    tag_174:\n        /* \"#utility.yul\":9122:9125   */\n      dup3\n        /* \"#utility.yul\":9115:9152   */\n      mstore\n        /* \"#utility.yul\":9105:9158   */\n      pop\n      pop\n      jump\t// out\n        /* \"#utility.yul\":9164:9282   */\n    tag_176:\n        /* \"#utility.yul\":9251:9275   */\n      tag_178\n        /* \"#utility.yul\":9269:9274   */\n      dup2\n        /* \"#utility.yul\":9251:9275   */\n      tag_175\n      jump\t// in\n    tag_178:\n        /* \"#utility.yul\":9246:9249   */\n      dup3\n        /* \"#utility.yul\":9239:9276   */\n      mstore\n        /* \"#utility.yul\":9229:9282   */\n      pop\n      pop\n      jump\t// out\n        /* \"#utility.yul\":9288:9620   */\n    tag_44:\n      0x00\n        /* \"#utility.yul\":9447:9449   */\n      0x40\n        /* \"#utility.yul\":9436:9445   */\n      dup3\n        /* \"#utility.yul\":9432:9450   */\n      add\n        /* \"#utility.yul\":9424:9450   */\n      swap1\n      pop\n        /* \"#utility.yul\":9460:9531   */\n      tag_180\n        /* \"#utility.yul\":9528:9529   */\n      0x00\n        /* \"#utility.yul\":9517:9526   */\n      dup4\n        /* \"#utility.yul\":9513:9530   */\n      add\n        /* \"#utility.yul\":9504:9510   */\n      dup6\n        /* \"#utility.yul\":9460:9531   */\n      tag_131\n      jump\t// in\n    tag_180:\n        /* \"#utility.yul\":9541:9613   */\n      tag_181\n        /* \"#utility.yul\":9609:9611   */\n      0x20\n        /* \"#utility.yul\":9598:9607   */\n      dup4\n        /* \"#utility.yul\":9594:9612   */\n      add\n        /* \"#utility.yul\":9585:9591   */\n      dup5\n        /* \"#utility.yul\":9541:9613   */\n      tag_176\n      jump\t// in\n    tag_181:\n        /* \"#utility.yul\":9414:9620   */\n      swap4\n      swap3\n      pop\n      pop\n      pop\n      jump\t// out\n        /* \"#utility.yul\":9626:9836   */\n    tag_22:\n      0x00\n        /* \"#utility.yul\":9751:9753   */\n      0x20\n        /* \"#utility.yul\":9740:9749   */\n      dup3\n        /* \"#utility.yul\":9736:9754   */\n      add\n        /* \"#utility.yul\":9728:9754   */\n      swap1\n      pop\n        /* \"#utility.yul\":9764:9829   */\n      tag_183\n        /* \"#utility.yul\":9826:9827   */\n      0x00\n        /* \"#utility.yul\":9815:9824   */\n      dup4\n        /* \"#utility.yul\":9811:9828   */\n      add\n        /* \"#utility.yul\":9802:9808   */\n      dup5\n        /* \"#utility.yul\":9764:9829   */\n      tag_134\n      jump\t// in\n    tag_183:\n        /* \"#utility.yul\":9718:9836   */\n      swap3\n      swap2\n      pop\n      pop\n      jump\t// out\n        /* \"#utility.yul\":9842:10126   */\n    tag_10:\n      0x00\n        /* \"#utility.yul\":10004:10006   */\n      0x20\n        /* \"#utility.yul\":9993:10002   */\n      dup3\n        /* \"#utility.yul\":9989:10007   */\n      add\n        /* \"#utility.yul\":9981:10007   */\n      swap1\n      pop\n        /* \"#utility.yul\":10017:10119   */\n      tag_185\n        /* \"#utility.yul\":10116:10117   */\n      0x00\n        /* \"#utility.yul\":10105:10114   */\n      dup4\n        /* \"#utility.yul\":10101:10118   */\n      add\n        /* \"#utility.yul\":10092:10098   */\n      dup5\n        /* \"#utility.yul\":10017:10119   */\n      tag_138\n      jump\t// in\n    tag_185:\n        /* \"#utility.yul\":9971:10126   */\n      swap3\n      swap2\n      pop\n      pop\n      jump\t// out\n        /* \"#utility.yul\":10132:10410   */\n    tag_15:\n      0x00\n        /* \"#utility.yul\":10291:10293   */\n      0x20\n        /* \"#utility.yul\":10280:10289   */\n      dup3\n        /* \"#utility.yul\":10276:10294   */\n      add\n        /* \"#utility.yul\":10268:10294   */\n      swap1\n      pop\n        /* \"#utility.yul\":10304:10403   */\n      tag_187\n        /* \"#utility.yul\":10400:10401   */\n      0x00\n        /* \"#utility.yul\":10389:10398   */\n      dup4\n        /* \"#utility.yul\":10385:10402   */\n      add\n        /* \"#utility.yul\":10376:10382   */\n      dup5\n        /* \"#utility.yul\":10304:10403   */\n      tag_142\n      jump\t// in\n    tag_187:\n        /* \"#utility.yul\":10258:10410   */\n      swap3\n      swap2\n      pop\n      pop\n      jump\t// out\n        /* \"#utility.yul\":10416:10835   */\n    tag_40:\n      0x00\n        /* \"#utility.yul\":10620:10622   */\n      0x20\n        /* \"#utility.yul\":10609:10618   */\n      dup3\n        /* \"#utility.yul\":10605:10623   */\n      add\n        /* \"#utility.yul\":10597:10623   */\n      swap1\n      pop\n        /* \"#utility.yul\":10669:10678   */\n      dup2\n        /* \"#utility.yul\":10663:10667   */\n      dup2\n        /* \"#utility.yul\":10659:10679   */\n      sub\n        /* \"#utility.yul\":10655:10656   */\n      0x00\n        /* \"#utility.yul\":10644:10653   */\n      dup4\n        /* \"#utility.yul\":10640:10657   */\n      add\n        /* \"#utility.yul\":10633:10680   */\n      mstore\n        /* \"#utility.yul\":10697:10828   */\n      tag_189\n        /* \"#utility.yul\":10823:10827   */\n      dup2\n        /* \"#utility.yul\":10697:10828   */\n      tag_150\n      jump\t// in\n    tag_189:\n        /* \"#utility.yul\":10689:10828   */\n      swap1\n      pop\n        /* \"#utility.yul\":10587:10835   */\n      swap2\n      swap1\n      pop\n      jump\t// out\n        /* \"#utility.yul\":10841:11063   */\n    tag_28:\n      0x00\n        /* \"#utility.yul\":10972:10974   */\n      0x20\n        /* \"#utility.yul\":10961:10970   */\n      dup3\n        /* \"#utility.yul\":10957:10975   */\n      add\n        /* \"#utility.yul\":10949:10975   */\n      swap1\n      pop\n        /* \"#utility.yul\":10985:11056   */\n      tag_191\n        /* \"#utility.yul\":11053:11054   */\n      0x00\n        /* \"#utility.yul\":11042:11051   */\n      dup4\n        /* \"#utility.yul\":11038:11055   */\n      add\n        /* \"#utility.yul\":11029:11035   */\n      dup5\n        /* \"#utility.yul\":10985:11056   */\n      tag_176\n      jump\t// in\n    tag_191:\n        /* \"#utility.yul\":10939:11063   */\n      swap3\n      swap2\n      pop\n      pop\n      jump\t// out\n        /* \"#utility.yul\":11069:11417   */\n    tag_31:\n      0x00\n        /* \"#utility.yul\":11236:11238   */\n      0x40\n        /* \"#utility.yul\":11225:11234   */\n      dup3\n        /* \"#utility.yul\":11221:11239   */\n      add\n        /* \"#utility.yul\":11213:11239   */\n      swap1\n      pop\n        /* \"#utility.yul\":11249:11320   */\n      tag_193\n        /* \"#utility.yul\":11317:11318   */\n      0x00\n        /* \"#utility.yul\":11306:11315   */\n      dup4\n        /* \"#utility.yul\":11302:11319   */\n      add\n        /* \"#utility.yul\":11293:11299   */\n      dup6\n        /* \"#utility.yul\":11249:11320   */\n      tag_176\n      jump\t// in\n    tag_193:\n        /* \"#utility.yul\":11330:11410   */\n      tag_194\n        /* \"#utility.yul\":11406:11408   */\n      0x20\n        /* \"#utility.yul\":11395:11404   */\n      dup4\n        /* \"#utility.yul\":11391:11409   */\n      add\n        /* \"#utility.yul\":11382:11388   */\n      dup5\n        /* \"#utility.yul\":11330:11410   */\n      tag_123\n      jump\t// in\n    tag_194:\n        /* \"#utility.yul\":11203:11417   */\n      swap4\n      swap3\n      pop\n      pop\n      pop\n      jump\t// out\n        /* \"#utility.yul\":11423:11860   */\n    tag_55:\n      0x00\n        /* \"#utility.yul\":11634:11637   */\n      0x01a0\n        /* \"#utility.yul\":11623:11632   */\n      dup3\n        /* \"#utility.yul\":11619:11638   */\n      add\n        /* \"#utility.yul\":11611:11638   */\n      swap1\n      pop\n        /* \"#utility.yul\":11648:11719   */\n      tag_196\n        /* \"#utility.yul\":11716:11717   */\n      0x00\n        /* \"#utility.yul\":11705:11714   */\n      dup4\n        /* \"#utility.yul\":11701:11718   */\n      add\n        /* \"#utility.yul\":11692:11698   */\n      dup6\n        /* \"#utility.yul\":11648:11719   */\n      tag_176\n      jump\t// in\n    tag_196:\n        /* \"#utility.yul\":11729:11853   */\n      tag_197\n        /* \"#utility.yul\":11849:11851   */\n      0x20\n        /* \"#utility.yul\":11838:11847   */\n      dup4\n        /* \"#utility.yul\":11834:11852   */\n      add\n        /* \"#utility.yul\":11825:11831   */\n      dup5\n        /* \"#utility.yul\":11729:11853   */\n      tag_154\n      jump\t// in\n    tag_197:\n        /* \"#utility.yul\":11601:11860   */\n      swap4\n      swap3\n      pop\n      pop\n      pop\n      jump\t// out\n        /* \"#utility.yul\":11866:12144   */\n    tag_81:\n      0x00\n        /* \"#utility.yul\":11932:11934   */\n      0x40\n        /* \"#utility.yul\":11926:11935   */\n      mload\n        /* \"#utility.yul\":11916:11935   */\n      swap1\n      pop\n        /* \"#utility.yul\":11974:11978   */\n      dup2\n        /* \"#utility.yul\":11966:11972   */\n      dup2\n        /* \"#utility.yul\":11962:11979   */\n      add\n        /* \"#utility.yul\":12081:12087   */\n      dup2\n        /* \"#utility.yul\":12069:12079   */\n      dup2\n        /* \"#utility.yul\":12066:12088   */\n      lt\n        /* \"#utility.yul\":12045:12063   */\n      0xffffffffffffffff\n        /* \"#utility.yul\":12033:12043   */\n      dup3\n        /* \"#utility.yul\":12030:12064   */\n      gt\n        /* \"#utility.yul\":12027:12089   */\n      or\n        /* \"#utility.yul\":12024:12026   */\n      iszero\n      tag_199\n      jumpi\n        /* \"#utility.yul\":12092:12105   */\n      tag_200\n      tag_201\n      jump\t// in\n    tag_200:\n        /* \"#utility.yul\":12024:12026   */\n    tag_199:\n        /* \"#utility.yul\":12127:12137   */\n      dup1\n        /* \"#utility.yul\":12123:12125   */\n      0x40\n        /* \"#utility.yul\":12116:12138   */\n      mstore\n        /* \"#utility.yul\":11906:12144   */\n      pop\n      swap2\n      swap1\n      pop\n      jump\t// out\n        /* \"#utility.yul\":12150:12319   */\n    tag_153:\n      0x00\n        /* \"#utility.yul\":12268:12274   */\n      dup3\n        /* \"#utility.yul\":12263:12266   */\n      dup3\n        /* \"#utility.yul\":12256:12275   */\n      mstore\n        /* \"#utility.yul\":12308:12312   */\n      0x20\n        /* \"#utility.yul\":12303:12306   */\n      dup3\n        /* \"#utility.yul\":12299:12313   */\n      add\n        /* \"#utility.yul\":12284:12313   */\n      swap1\n      pop\n        /* \"#utility.yul\":12246:12319   */\n      swap3\n      swap2\n      pop\n      pop\n      jump\t// out\n        /* \"#utility.yul\":12325:12421   */\n    tag_130:\n      0x00\n        /* \"#utility.yul\":12391:12415   */\n      tag_204\n        /* \"#utility.yul\":12409:12414   */\n      dup3\n        /* \"#utility.yul\":12391:12415   */\n      tag_172\n      jump\t// in\n    tag_204:\n        /* \"#utility.yul\":12380:12415   */\n      swap1\n      pop\n        /* \"#utility.yul\":12370:12421   */\n      swap2\n      swap1\n      pop\n      jump\t// out\n        /* \"#utility.yul\":12427:12517   */\n    tag_137:\n      0x00\n        /* \"#utility.yul\":12504:12509   */\n      dup2\n        /* \"#utility.yul\":12497:12510   */\n      iszero\n        /* \"#utility.yul\":12490:12511   */\n      iszero\n        /* \"#utility.yul\":12479:12511   */\n      swap1\n      pop\n        /* \"#utility.yul\":12469:12517   */\n      swap2\n      swap1\n      pop\n      jump\t// out\n        /* \"#utility.yul\":12523:12613   */\n    tag_149:\n      0x00\n        /* \"#utility.yul\":12601:12606   */\n      dup2\n        /* \"#utility.yul\":12598:12599   */\n      0x02\n        /* \"#utility.yul\":12587:12607   */\n      signextend\n        /* \"#utility.yul\":12576:12607   */\n      swap1\n      pop\n        /* \"#utility.yul\":12566:12613   */\n      swap2\n      swap1\n      pop\n      jump\t// out\n        /* \"#utility.yul\":12619:12745   */\n    tag_172:\n      0x00\n        /* \"#utility.yul\":12696:12738   */\n      0xffffffffffffffffffffffffffffffffffffffff\n        /* \"#utility.yul\":12689:12694   */\n      dup3\n        /* \"#utility.yul\":12685:12739   */\n      and\n        /* \"#utility.yul\":12674:12739   */\n      swap1\n      pop\n        /* \"#utility.yul\":12664:12745   */\n      swap2\n      swap1\n      pop\n      jump\t// out\n        /* \"#utility.yul\":12751:12828   */\n    tag_175:\n      0x00\n        /* \"#utility.yul\":12817:12822   */\n      dup2\n        /* \"#utility.yul\":12806:12822   */\n      swap1\n      pop\n        /* \"#utility.yul\":12796:12828   */\n      swap2\n      swap1\n      pop\n      jump\t// out\n        /* \"#utility.yul\":12834:12968   */\n    tag_126:\n      0x00\n        /* \"#utility.yul\":12925:12962   */\n      tag_210\n        /* \"#utility.yul\":12956:12961   */\n      dup3\n        /* \"#utility.yul\":12925:12962   */\n      tag_211\n      jump\t// in\n    tag_210:\n        /* \"#utility.yul\":12912:12962   */\n      swap1\n      pop\n        /* \"#utility.yul\":12902:12968   */\n      swap2\n      swap1\n      pop\n      jump\t// out\n        /* \"#utility.yul\":12974:13162   */\n    tag_141:\n      0x00\n        /* \"#utility.yul\":13088:13156   */\n      tag_213\n        /* \"#utility.yul\":13150:13155   */\n      dup3\n        /* \"#utility.yul\":13088:13156   */\n      tag_214\n      jump\t// in\n    tag_213:\n        /* \"#utility.yul\":13075:13156   */\n      swap1\n      pop\n        /* \"#utility.yul\":13065:13162   */\n      swap2\n      swap1\n      pop\n      jump\t// out\n        /* \"#utility.yul\":13168:13312   */\n    tag_214:\n      0x00\n        /* \"#utility.yul\":13282:13306   */\n      tag_216\n        /* \"#utility.yul\":13300:13305   */\n      dup3\n        /* \"#utility.yul\":13282:13306   */\n      tag_172\n      jump\t// in\n    tag_216:\n        /* \"#utility.yul\":13269:13306   */\n      swap1\n      pop\n        /* \"#utility.yul\":13259:13312   */\n      swap2\n      swap1\n      pop\n      jump\t// out\n        /* \"#utility.yul\":13318:13500   */\n    tag_145:\n      0x00\n        /* \"#utility.yul\":13429:13494   */\n      tag_218\n        /* \"#utility.yul\":13488:13493   */\n      dup3\n        /* \"#utility.yul\":13429:13494   */\n      tag_219\n      jump\t// in\n    tag_218:\n        /* \"#utility.yul\":13416:13494   */\n      swap1\n      pop\n        /* \"#utility.yul\":13406:13500   */\n      swap2\n      swap1\n      pop\n      jump\t// out\n        /* \"#utility.yul\":13506:13647   */\n    tag_219:\n      0x00\n        /* \"#utility.yul\":13617:13641   */\n      tag_221\n        /* \"#utility.yul\":13635:13640   */\n      dup3\n        /* \"#utility.yul\":13617:13641   */\n      tag_172\n      jump\t// in\n    tag_221:\n        /* \"#utility.yul\":13604:13641   */\n      swap1\n      pop\n        /* \"#utility.yul\":13594:13647   */\n      swap2\n      swap1\n      pop\n      jump\t// out\n        /* \"#utility.yul\":13653:13779   */\n    tag_211:\n      0x00\n        /* \"#utility.yul\":13736:13773   */\n      tag_223\n        /* \"#utility.yul\":13767:13772   */\n      dup3\n        /* \"#utility.yul\":13736:13773   */\n      tag_224\n      jump\t// in\n    tag_223:\n        /* \"#utility.yul\":13723:13773   */\n      swap1\n      pop\n        /* \"#utility.yul\":13713:13779   */\n      swap2\n      swap1\n      pop\n      jump\t// out\n        /* \"#utility.yul\":13785:13898   */\n    tag_224:\n      0x00\n        /* \"#utility.yul\":13868:13892   */\n      tag_226\n        /* \"#utility.yul\":13886:13891   */\n      dup3\n        /* \"#utility.yul\":13868:13892   */\n      tag_172\n      jump\t// in\n    tag_226:\n        /* \"#utility.yul\":13855:13892   */\n      swap1\n      pop\n        /* \"#utility.yul\":13845:13898   */\n      swap2\n      swap1\n      pop\n      jump\t// out\n        /* \"#utility.yul\":13904:13952   */\n    tag_201:\n        /* \"#utility.yul\":13937:13946   */\n      invalid\n        /* \"#utility.yul\":13958:14080   */\n    tag_65:\n        /* \"#utility.yul\":14031:14055   */\n      tag_229\n        /* \"#utility.yul\":14049:14054   */\n      dup2\n        /* \"#utility.yul\":14031:14055   */\n      tag_130\n      jump\t// in\n    tag_229:\n        /* \"#utility.yul\":14024:14029   */\n      dup2\n        /* \"#utility.yul\":14021:14056   */\n      eq\n        /* \"#utility.yul\":14011:14013   */\n      tag_230\n      jumpi\n        /* \"#utility.yul\":14070:14071   */\n      0x00\n        /* \"#utility.yul\":14067:14068   */\n      dup1\n        /* \"#utility.yul\":14060:14072   */\n      revert\n        /* \"#utility.yul\":14011:14013   */\n    tag_230:\n        /* \"#utility.yul\":14001:14080   */\n      pop\n      jump\t// out\n        /* \"#utility.yul\":14086:14202   */\n    tag_69:\n        /* \"#utility.yul\":14156:14177   */\n      tag_232\n        /* \"#utility.yul\":14171:14176   */\n      dup2\n        /* \"#utility.yul\":14156:14177   */\n      tag_137\n      jump\t// in\n    tag_232:\n        /* \"#utility.yul\":14149:14154   */\n      dup2\n        /* \"#utility.yul\":14146:14178   */\n      eq\n        /* \"#utility.yul\":14136:14138   */\n      tag_233\n      jumpi\n        /* \"#utility.yul\":14192:14193   */\n      0x00\n        /* \"#utility.yul\":14189:14190   */\n      dup1\n        /* \"#utility.yul\":14182:14194   */\n      revert\n        /* \"#utility.yul\":14136:14138   */\n    tag_233:\n        /* \"#utility.yul\":14126:14202   */\n      pop\n      jump\t// out\n        /* \"#utility.yul\":14208:14326   */\n    tag_73:\n        /* \"#utility.yul\":14279:14301   */\n      tag_235\n        /* \"#utility.yul\":14295:14300   */\n      dup2\n        /* \"#utility.yul\":14279:14301   */\n      tag_149\n      jump\t// in\n    tag_235:\n        /* \"#utility.yul\":14272:14277   */\n      dup2\n        /* \"#utility.yul\":14269:14302   */\n      eq\n        /* \"#utility.yul\":14259:14261   */\n      tag_236\n      jumpi\n        /* \"#utility.yul\":14316:14317   */\n      0x00\n        /* \"#utility.yul\":14313:14314   */\n      dup1\n        /* \"#utility.yul\":14306:14318   */\n      revert\n        /* \"#utility.yul\":14259:14261   */\n    tag_236:\n        /* \"#utility.yul\":14249:14326   */\n      pop\n      jump\t// out\n        /* \"#utility.yul\":14332:14454   */\n    tag_98:\n        /* \"#utility.yul\":14405:14429   */\n      tag_238\n        /* \"#utility.yul\":14423:14428   */\n      dup2\n        /* \"#utility.yul\":14405:14429   */\n      tag_172\n      jump\t// in\n    tag_238:\n        /* \"#utility.yul\":14398:14403   */\n      dup2\n        /* \"#utility.yul\":14395:14430   */\n      eq\n        /* \"#utility.yul\":14385:14387   */\n      tag_239\n      jumpi\n        /* \"#utility.yul\":14444:14445   */\n      0x00\n        /* \"#utility.yul\":14441:14442   */\n      dup1\n        /* \"#utility.yul\":14434:14446   */\n      revert\n        /* \"#utility.yul\":14385:14387   */\n    tag_239:\n        /* \"#utility.yul\":14375:14454   */\n      pop\n      jump\t// out\n        /* \"#utility.yul\":14460:14582   */\n    tag_101:\n        /* \"#utility.yul\":14533:14557   */\n      tag_241\n        /* \"#utility.yul\":14551:14556   */\n      dup2\n        /* \"#utility.yul\":14533:14557   */\n      tag_175\n      jump\t// in\n    tag_241:\n        /* \"#utility.yul\":14526:14531   */\n      dup2\n        /* \"#utility.yul\":14523:14558   */\n      eq\n        /* \"#utility.yul\":14513:14515   */\n      tag_242\n      jumpi\n        /* \"#utility.yul\":14572:14573   */\n      0x00\n        /* \"#utility.yul\":14569:14570   */\n      dup1\n        /* \"#utility.yul\":14562:14574   */\n      revert\n        /* \"#utility.yul\":14513:14515   */\n    tag_242:\n        /* \"#utility.yul\":14503:14582   */\n      pop\n      jump\t// out\n\n    auxdata: 0xa2646970667358221220ba27d425090c99661922712877ccdd5b9620396f1ec2633c0164b7f165a6532464736f6c63430007060033\n}\n",
				"bytecode": {
					"linkReferences": {},
					"object": "608060405234801561001057600080fd5b50604051610d72380380610d72833981810160405281019061003291906100cf565b816000806101000a81548173ffffffffffffffffffffffffffffffffffffffff021916908373ffffffffffffffffffffffffffffffffffffffff16021790555080600160006101000a81548173ffffffffffffffffffffffffffffffffffffffff021916908373ffffffffffffffffffffffffffffffffffffffff1602179055505050610154565b6000815190506100c98161013d565b92915050565b600080604083850312156100e257600080fd5b60006100f0858286016100ba565b9250506020610101858286016100ba565b9150509250929050565b60006101168261011d565b9050919050565b600073ffffffffffffffffffffffffffffffffffffffff82169050919050565b6101468161010b565b811461015157600080fd5b50565b610c0f806101636000396000f3fe60806040526004361061003f5760003560e01c80632b130f171461004457806336cbf9001461006f578063a5627d321461009a578063a773e1c4146100d7575b600080fd5b34801561005057600080fd5b50610059610107565b604051610066919061098b565b60405180910390f35b34801561007b57600080fd5b5061008461012d565b60405161009191906109a6565b60405180910390f35b3480156100a657600080fd5b506100c160048036038101906100bc91906106c3565b610151565b6040516100ce9190610970565b60405180910390f35b6100f160048036038101906100ec9190610715565b610209565b6040516100fe91906109e1565b60405180910390f35b600160009054906101000a900473ffffffffffffffffffffffffffffffffffffffff1681565b60008054906101000a900473ffffffffffffffffffffffffffffffffffffffff1681565b6000600160009054906101000a900473ffffffffffffffffffffffffffffffffffffffff1673ffffffffffffffffffffffffffffffffffffffff16636e553f6583336040518363ffffffff1660e01b81526004016101b09291906109fc565b602060405180830381600087803b1580156101ca57600080fd5b505af11580156101de573d6000803e3d6000fd5b505050506040513d601f19601f820116820180604052508101906102029190610670565b9050919050565b600084341461024d576040517f08c379a0000000000000000000000000000000000000000000000000000000008152600401610244906109c1565b60405180910390fd5b6000848036038101906102609190610699565b90503381610120019073ffffffffffffffffffffffffffffffffffffffff16908173ffffffffffffffffffffffffffffffffffffffff16815250508373ffffffffffffffffffffffffffffffffffffffff1663095ea7b360008054906101000a900473ffffffffffffffffffffffffffffffffffffffff168360a001516040518363ffffffff1660e01b81526004016102fa929190610947565b602060405180830381600087803b15801561031457600080fd5b505af1158015610328573d6000803e3d6000fd5b505050506040513d601f19601f8201168201806040525081019061034c9190610670565b508273ffffffffffffffffffffffffffffffffffffffff1663095ea7b360008054906101000a900473ffffffffffffffffffffffffffffffffffffffff168360c001516040518363ffffffff1660e01b81526004016103ac929190610947565b602060405180830381600087803b1580156103c657600080fd5b505af11580156103da573d6000803e3d6000fd5b505050506040513d601f19601f820116820180604052508101906103fe9190610670565b5060008054906101000a900473ffffffffffffffffffffffffffffffffffffffff1673ffffffffffffffffffffffffffffffffffffffff1663b06fee8b8788846040518463ffffffff1660e01b815260040161045b929190610a25565b6020604051808303818588803b15801561047457600080fd5b505af1158015610488573d6000803e3d6000fd5b50505050506040513d601f19601f820116820180604052508101906104ad91906106ec565b915050949350505050565b6000813590506104c781610b66565b92915050565b6000815190506104dc81610b7d565b92915050565b6000813590506104f181610b94565b92915050565b6000610180828403121561050a57600080fd5b81905092915050565b6000610180828403121561052657600080fd5b610531610180610a4f565b90506000610541848285016104b8565b6000830152506020610555848285016104b8565b6020830152506040610569848285016104e2565b604083015250606061057d848285016104e2565b6060830152506080610591848285016104e2565b60808301525060a06105a584828501610646565b60a08301525060c06105b984828501610646565b60c08301525060e06105cd84828501610646565b60e0830152506101006105e284828501610646565b610100830152506101206105f8848285016104b8565b6101208301525061014061060e84828501610646565b6101408301525061016061062484828501610631565b6101608301525092915050565b60008135905061064081610bab565b92915050565b60008135905061065581610bc2565b92915050565b60008151905061066a81610bc2565b92915050565b60006020828403121561068257600080fd5b6000610690848285016104cd565b91505092915050565b600061018082840312156106ac57600080fd5b60006106ba84828501610513565b91505092915050565b6000602082840312156106d557600080fd5b60006106e384828501610646565b91505092915050565b6000602082840312156106fe57600080fd5b600061070c8482850161065b565b91505092915050565b6000806000806101e0858703121561072c57600080fd5b600061073a87828801610646565b945050602061074b878288016104f7565b9350506101a061075d878288016104b8565b9250506101c061076f878288016104b8565b91505092959194509250565b61078481610ae6565b82525050565b61079381610a91565b82525050565b6107a281610a91565b82525050565b6107b181610aa3565b82525050565b6107c081610af8565b82525050565b6107cf81610b1c565b82525050565b6107de81610aaf565b82525050565b60006107f1601483610a80565b91507f496e636f72726563742045746865722073656e740000000000000000000000006000830152602082019050919050565b6101808201600082015161083b600085018261078a565b50602082015161084e602085018261078a565b50604082015161086160408501826107d5565b50606082015161087460608501826107d5565b50608082015161088760808501826107d5565b5060a082015161089a60a0850182610929565b5060c08201516108ad60c0850182610929565b5060e08201516108c060e0850182610929565b506101008201516108d5610100850182610929565b506101208201516108ea61012085018261078a565b506101408201516108ff610140850182610929565b5061016082015161091461016085018261091a565b50505050565b61092381610abc565b82525050565b61093281610adc565b82525050565b61094181610adc565b82525050565b600060408201905061095c6000830185610799565b6109696020830184610938565b9392505050565b600060208201905061098560008301846107a8565b92915050565b60006020820190506109a060008301846107b7565b92915050565b60006020820190506109bb60008301846107c6565b92915050565b600060208201905081810360008301526109da816107e4565b9050919050565b60006020820190506109f66000830184610938565b92915050565b6000604082019050610a116000830185610938565b610a1e602083018461077b565b9392505050565b60006101a082019050610a3b6000830185610938565b610a486020830184610824565b9392505050565b6000604051905081810181811067ffffffffffffffff82111715610a7657610a75610b64565b5b8060405250919050565b600082825260208201905092915050565b6000610a9c82610abc565b9050919050565b60008115159050919050565b60008160020b9050919050565b600073ffffffffffffffffffffffffffffffffffffffff82169050919050565b6000819050919050565b6000610af182610b40565b9050919050565b6000610b0382610b0a565b9050919050565b6000610b1582610abc565b9050919050565b6000610b2782610b2e565b9050919050565b6000610b3982610abc565b9050919050565b6000610b4b82610b52565b9050919050565b6000610b5d82610abc565b9050919050565bfe5b610b6f81610a91565b8114610b7a57600080fd5b50565b610b8681610aa3565b8114610b9157600080fd5b50565b610b9d81610aaf565b8114610ba857600080fd5b50565b610bb481610abc565b8114610bbf57600080fd5b50565b610bcb81610adc565b8114610bd657600080fd5b5056fea2646970667358221220ba27d425090c99661922712877ccdd5b9620396f1ec2633c0164b7f165a6532464736f6c63430007060033",
					"opcodes": "PUSH1 0x80 PUSH1 0x40 MSTORE CALLVALUE DUP1 ISZERO PUSH2 0x10 JUMPI PUSH1 0x0 DUP1 REVERT JUMPDEST POP PUSH1 0x40 MLOAD PUSH2 0xD72 CODESIZE SUB DUP1 PUSH2 0xD72 DUP4 CODECOPY DUP2 DUP2 ADD PUSH1 0x40 MSTORE DUP2 ADD SWAP1 PUSH2 0x32 SWAP2 SWAP1 PUSH2 0xCF JUMP JUMPDEST DUP2 PUSH1 0x0 DUP1 PUSH2 0x100 EXP DUP2 SLOAD DUP2 PUSH20 0xFFFFFFFFFFFFFFFFFFFFFFFFFFFFFFFFFFFFFFFF MUL NOT AND SWAP1 DUP4 PUSH20 0xFFFFFFFFFFFFFFFFFFFFFFFFFFFFFFFFFFFFFFFF AND MUL OR SWAP1 SSTORE POP DUP1 PUSH1 0x1 PUSH1 0x0 PUSH2 0x100 EXP DUP2 SLOAD DUP2 PUSH20 0xFFFFFFFFFFFFFFFFFFFFFFFFFFFFFFFFFFFFFFFF MUL NOT AND SWAP1 DUP4 PUSH20 0xFFFFFFFFFFFFFFFFFFFFFFFFFFFFFFFFFFFFFFFF AND MUL OR SWAP1 SSTORE POP POP POP PUSH2 0x154 JUMP JUMPDEST PUSH1 0x0 DUP2 MLOAD SWAP1 POP PUSH2 0xC9 DUP2 PUSH2 0x13D JUMP JUMPDEST SWAP3 SWAP2 POP POP JUMP JUMPDEST PUSH1 0x0 DUP1 PUSH1 0x40 DUP4 DUP6 SUB SLT ISZERO PUSH2 0xE2 JUMPI PUSH1 0x0 DUP1 REVERT JUMPDEST PUSH1 0x0 PUSH2 0xF0 DUP6 DUP3 DUP7 ADD PUSH2 0xBA JUMP JUMPDEST SWAP3 POP POP PUSH1 0x20 PUSH2 0x101 DUP6 DUP3 DUP7 ADD PUSH2 0xBA JUMP JUMPDEST SWAP2 POP POP SWAP3 POP SWAP3 SWAP1 POP JUMP JUMPDEST PUSH1 0x0 PUSH2 0x116 DUP3 PUSH2 0x11D JUMP JUMPDEST SWAP1 POP SWAP2 SWAP1 POP JUMP JUMPDEST PUSH1 0x0 PUSH20 0xFFFFFFFFFFFFFFFFFFFFFFFFFFFFFFFFFFFFFFFF DUP3 AND SWAP1 POP SWAP2 SWAP1 POP JUMP JUMPDEST PUSH2 0x146 DUP2 PUSH2 0x10B JUMP JUMPDEST DUP2 EQ PUSH2 0x151 JUMPI PUSH1 0x0 DUP1 REVERT JUMPDEST POP JUMP JUMPDEST PUSH2 0xC0F DUP1 PUSH2 0x163 PUSH1 0x0 CODECOPY PUSH1 0x0 RETURN INVALID PUSH1 0x80 PUSH1 0x40 MSTORE PUSH1 0x4 CALLDATASIZE LT PUSH2 0x3F JUMPI PUSH1 0x0 CALLDATALOAD PUSH1 0xE0 SHR DUP1 PUSH4 0x2B130F17 EQ PUSH2 0x44 JUMPI DUP1 PUSH4 0x36CBF900 EQ PUSH2 0x6F JUMPI DUP1 PUSH4 0xA5627D32 EQ PUSH2 0x9A JUMPI DUP1 PUSH4 0xA773E1C4 EQ PUSH2 0xD7 JUMPI JUMPDEST PUSH1 0x0 DUP1 REVERT JUMPDEST CALLVALUE DUP1 ISZERO PUSH2 0x50 JUMPI PUSH1 0x0 DUP1 REVERT JUMPDEST POP PUSH2 0x59 PUSH2 0x107 JUMP JUMPDEST PUSH1 0x40 MLOAD PUSH2 0x66 SWAP2 SWAP1 PUSH2 0x98B JUMP JUMPDEST PUSH1 0x40 MLOAD DUP1 SWAP2 SUB SWAP1 RETURN JUMPDEST CALLVALUE DUP1 ISZERO PUSH2 0x7B JUMPI PUSH1 0x0 DUP1 REVERT JUMPDEST POP PUSH2 0x84 PUSH2 0x12D JUMP JUMPDEST PUSH1 0x40 MLOAD PUSH2 0x91 SWAP2 SWAP1 PUSH2 0x9A6 JUMP JUMPDEST PUSH1 0x40 MLOAD DUP1 SWAP2 SUB SWAP1 RETURN JUMPDEST CALLVALUE DUP1 ISZERO PUSH2 0xA6 JUMPI PUSH1 0x0 DUP1 REVERT JUMPDEST POP PUSH2 0xC1 PUSH1 0x4 DUP1 CALLDATASIZE SUB DUP2 ADD SWAP1 PUSH2 0xBC SWAP2 SWAP1 PUSH2 0x6C3 JUMP JUMPDEST PUSH2 0x151 JUMP JUMPDEST PUSH1 0x40 MLOAD PUSH2 0xCE SWAP2 SWAP1 PUSH2 0x970 JUMP JUMPDEST PUSH1 0x40 MLOAD DUP1 SWAP2 SUB SWAP1 RETURN JUMPDEST PUSH2 0xF1 PUSH1 0x4 DUP1 CALLDATASIZE SUB DUP2 ADD SWAP1 PUSH2 0xEC SWAP2 SWAP1 PUSH2 0x715 JUMP JUMPDEST PUSH2 0x209 JUMP JUMPDEST PUSH1 0x40 MLOAD PUSH2 0xFE SWAP2 SWAP1 PUSH2 0x9E1 JUMP JUMPDEST PUSH1 0x40 MLOAD DUP1 SWAP2 SUB SWAP1 RETURN JUMPDEST PUSH1 0x1 PUSH1 0x0 SWAP1 SLOAD SWAP1 PUSH2 0x100 EXP SWAP1 DIV PUSH20 0xFFFFFFFFFFFFFFFFFFFFFFFFFFFFFFFFFFFFFFFF AND DUP2 JUMP JUMPDEST PUSH1 0x0 DUP1 SLOAD SWAP1 PUSH2 0x100 EXP SWAP1 DIV PUSH20 0xFFFFFFFFFFFFFFFFFFFFFFFFFFFFFFFFFFFFFFFF AND DUP2 JUMP JUMPDEST PUSH1 0x0 PUSH1 0x1 PUSH1 0x0 SWAP1 SLOAD SWAP1 PUSH2 0x100 EXP SWAP1 DIV PUSH20 0xFFFFFFFFFFFFFFFFFFFFFFFFFFFFFFFFFFFFFFFF AND PUSH20 0xFFFFFFFFFFFFFFFFFFFFFFFFFFFFFFFFFFFFFFFF AND PUSH4 0x6E553F65 DUP4 CALLER PUSH1 0x40 MLOAD DUP4 PUSH4 0xFFFFFFFF AND PUSH1 0xE0 SHL DUP2 MSTORE PUSH1 0x4 ADD PUSH2 0x1B0 SWAP3 SWAP2 SWAP1 PUSH2 0x9FC JUMP JUMPDEST PUSH1 0x20 PUSH1 0x40 MLOAD DUP1 DUP4 SUB DUP2 PUSH1 0x0 DUP8 DUP1 EXTCODESIZE ISZERO DUP1 ISZERO PUSH2 0x1CA JUMPI PUSH1 0x0 DUP1 REVERT JUMPDEST POP GAS CALL ISZERO DUP1 ISZERO PUSH2 0x1DE JUMPI RETURNDATASIZE PUSH1 0x0 DUP1 RETURNDATACOPY RETURNDATASIZE PUSH1 0x0 REVERT JUMPDEST POP POP POP POP PUSH1 0x40 MLOAD RETURNDATASIZE PUSH1 0x1F NOT PUSH1 0x1F DUP3 ADD AND DUP3 ADD DUP1 PUSH1 0x40 MSTORE POP DUP2 ADD SWAP1 PUSH2 0x202 SWAP2 SWAP1 PUSH2 0x670 JUMP JUMPDEST SWAP1 POP SWAP2 SWAP1 POP JUMP JUMPDEST PUSH1 0x0 DUP5 CALLVALUE EQ PUSH2 0x24D JUMPI PUSH1 0x40 MLOAD PUSH32 0x8C379A000000000000000000000000000000000000000000000000000000000 DUP2 MSTORE PUSH1 0x4 ADD PUSH2 0x244 SWAP1 PUSH2 0x9C1 JUMP JUMPDEST PUSH1 0x40 MLOAD DUP1 SWAP2 SUB SWAP1 REVERT JUMPDEST PUSH1 0x0 DUP5 DUP1 CALLDATASIZE SUB DUP2 ADD SWAP1 PUSH2 0x260 SWAP2 SWAP1 PUSH2 0x699 JUMP JUMPDEST SWAP1 POP CALLER DUP2 PUSH2 0x120 ADD SWAP1 PUSH20 0xFFFFFFFFFFFFFFFFFFFFFFFFFFFFFFFFFFFFFFFF AND SWAP1 DUP2 PUSH20 0xFFFFFFFFFFFFFFFFFFFFFFFFFFFFFFFFFFFFFFFF AND DUP2 MSTORE POP POP DUP4 PUSH20 0xFFFFFFFFFFFFFFFFFFFFFFFFFFFFFFFFFFFFFFFF AND PUSH4 0x95EA7B3 PUSH1 0x0 DUP1 SLOAD SWAP1 PUSH2 0x100 EXP SWAP1 DIV PUSH20 0xFFFFFFFFFFFFFFFFFFFFFFFFFFFFFFFFFFFFFFFF AND DUP4 PUSH1 0xA0 ADD MLOAD PUSH1 0x40 MLOAD DUP4 PUSH4 0xFFFFFFFF AND PUSH1 0xE0 SHL DUP2 MSTORE PUSH1 0x4 ADD PUSH2 0x2FA SWAP3 SWAP2 SWAP1 PUSH2 0x947 JUMP JUMPDEST PUSH1 0x20 PUSH1 0x40 MLOAD DUP1 DUP4 SUB DUP2 PUSH1 0x0 DUP8 DUP1 EXTCODESIZE ISZERO DUP1 ISZERO PUSH2 0x314 JUMPI PUSH1 0x0 DUP1 REVERT JUMPDEST POP GAS CALL ISZERO DUP1 ISZERO PUSH2 0x328 JUMPI RETURNDATASIZE PUSH1 0x0 DUP1 RETURNDATACOPY RETURNDATASIZE PUSH1 0x0 REVERT JUMPDEST POP POP POP POP PUSH1 0x40 MLOAD RETURNDATASIZE PUSH1 0x1F NOT PUSH1 0x1F DUP3 ADD AND DUP3 ADD DUP1 PUSH1 0x40 MSTORE POP DUP2 ADD SWAP1 PUSH2 0x34C SWAP2 SWAP1 PUSH2 0x670 JUMP JUMPDEST POP DUP3 PUSH20 0xFFFFFFFFFFFFFFFFFFFFFFFFFFFFFFFFFFFFFFFF AND PUSH4 0x95EA7B3 PUSH1 0x0 DUP1 SLOAD SWAP1 PUSH2 0x100 EXP SWAP1 DIV PUSH20 0xFFFFFFFFFFFFFFFFFFFFFFFFFFFFFFFFFFFFFFFF AND DUP4 PUSH1 0xC0 ADD MLOAD PUSH1 0x40 MLOAD DUP4 PUSH4 0xFFFFFFFF AND PUSH1 0xE0 SHL DUP2 MSTORE PUSH1 0x4 ADD PUSH2 0x3AC SWAP3 SWAP2 SWAP1 PUSH2 0x947 JUMP JUMPDEST PUSH1 0x20 PUSH1 0x40 MLOAD DUP1 DUP4 SUB DUP2 PUSH1 0x0 DUP8 DUP1 EXTCODESIZE ISZERO DUP1 ISZERO PUSH2 0x3C6 JUMPI PUSH1 0x0 DUP1 REVERT JUMPDEST POP GAS CALL ISZERO DUP1 ISZERO PUSH2 0x3DA JUMPI RETURNDATASIZE PUSH1 0x0 DUP1 RETURNDATACOPY RETURNDATASIZE PUSH1 0x0 REVERT JUMPDEST POP POP POP POP PUSH1 0x40 MLOAD RETURNDATASIZE PUSH1 0x1F NOT PUSH1 0x1F DUP3 ADD AND DUP3 ADD DUP1 PUSH1 0x40 MSTORE POP DUP2 ADD SWAP1 PUSH2 0x3FE SWAP2 SWAP1 PUSH2 0x670 JUMP JUMPDEST POP PUSH1 0x0 DUP1 SLOAD SWAP1 PUSH2 0x100 EXP SWAP1 DIV PUSH20 0xFFFFFFFFFFFFFFFFFFFFFFFFFFFFFFFFFFFFFFFF AND PUSH20 0xFFFFFFFFFFFFFFFFFFFFFFFFFFFFFFFFFFFFFFFF AND PUSH4 0xB06FEE8B DUP8 DUP9 DUP5 PUSH1 0x40 MLOAD DUP5 PUSH4 0xFFFFFFFF AND PUSH1 0xE0 SHL DUP2 MSTORE PUSH1 0x4 ADD PUSH2 0x45B SWAP3 SWAP2 SWAP1 PUSH2 0xA25 JUMP JUMPDEST PUSH1 0x20 PUSH1 0x40 MLOAD DUP1 DUP4 SUB DUP2 DUP6 DUP9 DUP1 EXTCODESIZE ISZERO DUP1 ISZERO PUSH2 0x474 JUMPI PUSH1 0x0 DUP1 REVERT JUMPDEST POP GAS CALL ISZERO DUP1 ISZERO PUSH2 0x488 JUMPI RETURNDATASIZE PUSH1 0x0 DUP1 RETURNDATACOPY RETURNDATASIZE PUSH1 0x0 REVERT JUMPDEST POP POP POP POP POP PUSH1 0x40 MLOAD RETURNDATASIZE PUSH1 0x1F NOT PUSH1 0x1F DUP3 ADD AND DUP3 ADD DUP1 PUSH1 0x40 MSTORE POP DUP2 ADD SWAP1 PUSH2 0x4AD SWAP2 SWAP1 PUSH2 0x6EC JUMP JUMPDEST SWAP2 POP POP SWAP5 SWAP4 POP POP POP POP JUMP JUMPDEST PUSH1 0x0 DUP2 CALLDATALOAD SWAP1 POP PUSH2 0x4C7 DUP2 PUSH2 0xB66 JUMP JUMPDEST SWAP3 SWAP2 POP POP JUMP JUMPDEST PUSH1 0x0 DUP2 MLOAD SWAP1 POP PUSH2 0x4DC DUP2 PUSH2 0xB7D JUMP JUMPDEST SWAP3 SWAP2 POP POP JUMP JUMPDEST PUSH1 0x0 DUP2 CALLDATALOAD SWAP1 POP PUSH2 0x4F1 DUP2 PUSH2 0xB94 JUMP JUMPDEST SWAP3 SWAP2 POP POP JUMP JUMPDEST PUSH1 0x0 PUSH2 0x180 DUP3 DUP5 SUB SLT ISZERO PUSH2 0x50A JUMPI PUSH1 0x0 DUP1 REVERT JUMPDEST DUP2 SWAP1 POP SWAP3 SWAP2 POP POP JUMP JUMPDEST PUSH1 0x0 PUSH2 0x180 DUP3 DUP5 SUB SLT ISZERO PUSH2 0x526 JUMPI PUSH1 0x0 DUP1 REVERT JUMPDEST PUSH2 0x531 PUSH2 0x180 PUSH2 0xA4F JUMP JUMPDEST SWAP1 POP PUSH1 0x0 PUSH2 0x541 DUP5 DUP3 DUP6 ADD PUSH2 0x4B8 JUMP JUMPDEST PUSH1 0x0 DUP4 ADD MSTORE POP PUSH1 0x20 PUSH2 0x555 DUP5 DUP3 DUP6 ADD PUSH2 0x4B8 JUMP JUMPDEST PUSH1 0x20 DUP4 ADD MSTORE POP PUSH1 0x40 PUSH2 0x569 DUP5 DUP3 DUP6 ADD PUSH2 0x4E2 JUMP JUMPDEST PUSH1 0x40 DUP4 ADD MSTORE POP PUSH1 0x60 PUSH2 0x57D DUP5 DUP3 DUP6 ADD PUSH2 0x4E2 JUMP JUMPDEST PUSH1 0x60 DUP4 ADD MSTORE POP PUSH1 0x80 PUSH2 0x591 DUP5 DUP3 DUP6 ADD PUSH2 0x4E2 JUMP JUMPDEST PUSH1 0x80 DUP4 ADD MSTORE POP PUSH1 0xA0 PUSH2 0x5A5 DUP5 DUP3 DUP6 ADD PUSH2 0x646 JUMP JUMPDEST PUSH1 0xA0 DUP4 ADD MSTORE POP PUSH1 0xC0 PUSH2 0x5B9 DUP5 DUP3 DUP6 ADD PUSH2 0x646 JUMP JUMPDEST PUSH1 0xC0 DUP4 ADD MSTORE POP PUSH1 0xE0 PUSH2 0x5CD DUP5 DUP3 DUP6 ADD PUSH2 0x646 JUMP JUMPDEST PUSH1 0xE0 DUP4 ADD MSTORE POP PUSH2 0x100 PUSH2 0x5E2 DUP5 DUP3 DUP6 ADD PUSH2 0x646 JUMP JUMPDEST PUSH2 0x100 DUP4 ADD MSTORE POP PUSH2 0x120 PUSH2 0x5F8 DUP5 DUP3 DUP6 ADD PUSH2 0x4B8 JUMP JUMPDEST PUSH2 0x120 DUP4 ADD MSTORE POP PUSH2 0x140 PUSH2 0x60E DUP5 DUP3 DUP6 ADD PUSH2 0x646 JUMP JUMPDEST PUSH2 0x140 DUP4 ADD MSTORE POP PUSH2 0x160 PUSH2 0x624 DUP5 DUP3 DUP6 ADD PUSH2 0x631 JUMP JUMPDEST PUSH2 0x160 DUP4 ADD MSTORE POP SWAP3 SWAP2 POP POP JUMP JUMPDEST PUSH1 0x0 DUP2 CALLDATALOAD SWAP1 POP PUSH2 0x640 DUP2 PUSH2 0xBAB JUMP JUMPDEST SWAP3 SWAP2 POP POP JUMP JUMPDEST PUSH1 0x0 DUP2 CALLDATALOAD SWAP1 POP PUSH2 0x655 DUP2 PUSH2 0xBC2 JUMP JUMPDEST SWAP3 SWAP2 POP POP JUMP JUMPDEST PUSH1 0x0 DUP2 MLOAD SWAP1 POP PUSH2 0x66A DUP2 PUSH2 0xBC2 JUMP JUMPDEST SWAP3 SWAP2 POP POP JUMP JUMPDEST PUSH1 0x0 PUSH1 0x20 DUP3 DUP5 SUB SLT ISZERO PUSH2 0x682 JUMPI PUSH1 0x0 DUP1 REVERT JUMPDEST PUSH1 0x0 PUSH2 0x690 DUP5 DUP3 DUP6 ADD PUSH2 0x4CD JUMP JUMPDEST SWAP2 POP POP SWAP3 SWAP2 POP POP JUMP JUMPDEST PUSH1 0x0 PUSH2 0x180 DUP3 DUP5 SUB SLT ISZERO PUSH2 0x6AC JUMPI PUSH1 0x0 DUP1 REVERT JUMPDEST PUSH1 0x0 PUSH2 0x6BA DUP5 DUP3 DUP6 ADD PUSH2 0x513 JUMP JUMPDEST SWAP2 POP POP SWAP3 SWAP2 POP POP JUMP JUMPDEST PUSH1 0x0 PUSH1 0x20 DUP3 DUP5 SUB SLT ISZERO PUSH2 0x6D5 JUMPI PUSH1 0x0 DUP1 REVERT JUMPDEST PUSH1 0x0 PUSH2 0x6E3 DUP5 DUP3 DUP6 ADD PUSH2 0x646 JUMP JUMPDEST SWAP2 POP POP SWAP3 SWAP2 POP POP JUMP JUMPDEST PUSH1 0x0 PUSH1 0x20 DUP3 DUP5 SUB SLT ISZERO PUSH2 0x6FE JUMPI PUSH1 0x0 DUP1 REVERT JUMPDEST PUSH1 0x0 PUSH2 0x70C DUP5 DUP3 DUP6 ADD PUSH2 0x65B JUMP JUMPDEST SWAP2 POP POP SWAP3 SWAP2 POP POP JUMP JUMPDEST PUSH1 0x0 DUP1 PUSH1 0x0 DUP1 PUSH2 0x1E0 DUP6 DUP8 SUB SLT ISZERO PUSH2 0x72C JUMPI PUSH1 0x0 DUP1 REVERT JUMPDEST PUSH1 0x0 PUSH2 0x73A DUP8 DUP3 DUP9 ADD PUSH2 0x646 JUMP JUMPDEST SWAP5 POP POP PUSH1 0x20 PUSH2 0x74B DUP8 DUP3 DUP9 ADD PUSH2 0x4F7 JUMP JUMPDEST SWAP4 POP POP PUSH2 0x1A0 PUSH2 0x75D DUP8 DUP3 DUP9 ADD PUSH2 0x4B8 JUMP JUMPDEST SWAP3 POP POP PUSH2 0x1C0 PUSH2 0x76F DUP8 DUP3 DUP9 ADD PUSH2 0x4B8 JUMP JUMPDEST SWAP2 POP POP SWAP3 SWAP6 SWAP2 SWAP5 POP SWAP3 POP JUMP JUMPDEST PUSH2 0x784 DUP2 PUSH2 0xAE6 JUMP JUMPDEST DUP3 MSTORE POP POP JUMP JUMPDEST PUSH2 0x793 DUP2 PUSH2 0xA91 JUMP JUMPDEST DUP3 MSTORE POP POP JUMP JUMPDEST PUSH2 0x7A2 DUP2 PUSH2 0xA91 JUMP JUMPDEST DUP3 MSTORE POP POP JUMP JUMPDEST PUSH2 0x7B1 DUP2 PUSH2 0xAA3 JUMP JUMPDEST DUP3 MSTORE POP POP JUMP JUMPDEST PUSH2 0x7C0 DUP2 PUSH2 0xAF8 JUMP JUMPDEST DUP3 MSTORE POP POP JUMP JUMPDEST PUSH2 0x7CF DUP2 PUSH2 0xB1C JUMP JUMPDEST DUP3 MSTORE POP POP JUMP JUMPDEST PUSH2 0x7DE DUP2 PUSH2 0xAAF JUMP JUMPDEST DUP3 MSTORE POP POP JUMP JUMPDEST PUSH1 0x0 PUSH2 0x7F1 PUSH1 0x14 DUP4 PUSH2 0xA80 JUMP JUMPDEST SWAP2 POP PUSH32 0x496E636F72726563742045746865722073656E74000000000000000000000000 PUSH1 0x0 DUP4 ADD MSTORE PUSH1 0x20 DUP3 ADD SWAP1 POP SWAP2 SWAP1 POP JUMP JUMPDEST PUSH2 0x180 DUP3 ADD PUSH1 0x0 DUP3 ADD MLOAD PUSH2 0x83B PUSH1 0x0 DUP6 ADD DUP3 PUSH2 0x78A JUMP JUMPDEST POP PUSH1 0x20 DUP3 ADD MLOAD PUSH2 0x84E PUSH1 0x20 DUP6 ADD DUP3 PUSH2 0x78A JUMP JUMPDEST POP PUSH1 0x40 DUP3 ADD MLOAD PUSH2 0x861 PUSH1 0x40 DUP6 ADD DUP3 PUSH2 0x7D5 JUMP JUMPDEST POP PUSH1 0x60 DUP3 ADD MLOAD PUSH2 0x874 PUSH1 0x60 DUP6 ADD DUP3 PUSH2 0x7D5 JUMP JUMPDEST POP PUSH1 0x80 DUP3 ADD MLOAD PUSH2 0x887 PUSH1 0x80 DUP6 ADD DUP3 PUSH2 0x7D5 JUMP JUMPDEST POP PUSH1 0xA0 DUP3 ADD MLOAD PUSH2 0x89A PUSH1 0xA0 DUP6 ADD DUP3 PUSH2 0x929 JUMP JUMPDEST POP PUSH1 0xC0 DUP3 ADD MLOAD PUSH2 0x8AD PUSH1 0xC0 DUP6 ADD DUP3 PUSH2 0x929 JUMP JUMPDEST POP PUSH1 0xE0 DUP3 ADD MLOAD PUSH2 0x8C0 PUSH1 0xE0 DUP6 ADD DUP3 PUSH2 0x929 JUMP JUMPDEST POP PUSH2 0x100 DUP3 ADD MLOAD PUSH2 0x8D5 PUSH2 0x100 DUP6 ADD DUP3 PUSH2 0x929 JUMP JUMPDEST POP PUSH2 0x120 DUP3 ADD MLOAD PUSH2 0x8EA PUSH2 0x120 DUP6 ADD DUP3 PUSH2 0x78A JUMP JUMPDEST POP PUSH2 0x140 DUP3 ADD MLOAD PUSH2 0x8FF PUSH2 0x140 DUP6 ADD DUP3 PUSH2 0x929 JUMP JUMPDEST POP PUSH2 0x160 DUP3 ADD MLOAD PUSH2 0x914 PUSH2 0x160 DUP6 ADD DUP3 PUSH2 0x91A JUMP JUMPDEST POP POP POP POP JUMP JUMPDEST PUSH2 0x923 DUP2 PUSH2 0xABC JUMP JUMPDEST DUP3 MSTORE POP POP JUMP JUMPDEST PUSH2 0x932 DUP2 PUSH2 0xADC JUMP JUMPDEST DUP3 MSTORE POP POP JUMP JUMPDEST PUSH2 0x941 DUP2 PUSH2 0xADC JUMP JUMPDEST DUP3 MSTORE POP POP JUMP JUMPDEST PUSH1 0x0 PUSH1 0x40 DUP3 ADD SWAP1 POP PUSH2 0x95C PUSH1 0x0 DUP4 ADD DUP6 PUSH2 0x799 JUMP JUMPDEST PUSH2 0x969 PUSH1 0x20 DUP4 ADD DUP5 PUSH2 0x938 JUMP JUMPDEST SWAP4 SWAP3 POP POP POP JUMP JUMPDEST PUSH1 0x0 PUSH1 0x20 DUP3 ADD SWAP1 POP PUSH2 0x985 PUSH1 0x0 DUP4 ADD DUP5 PUSH2 0x7A8 JUMP JUMPDEST SWAP3 SWAP2 POP POP JUMP JUMPDEST PUSH1 0x0 PUSH1 0x20 DUP3 ADD SWAP1 POP PUSH2 0x9A0 PUSH1 0x0 DUP4 ADD DUP5 PUSH2 0x7B7 JUMP JUMPDEST SWAP3 SWAP2 POP POP JUMP JUMPDEST PUSH1 0x0 PUSH1 0x20 DUP3 ADD SWAP1 POP PUSH2 0x9BB PUSH1 0x0 DUP4 ADD DUP5 PUSH2 0x7C6 JUMP JUMPDEST SWAP3 SWAP2 POP POP JUMP JUMPDEST PUSH1 0x0 PUSH1 0x20 DUP3 ADD SWAP1 POP DUP2 DUP2 SUB PUSH1 0x0 DUP4 ADD MSTORE PUSH2 0x9DA DUP2 PUSH2 0x7E4 JUMP JUMPDEST SWAP1 POP SWAP2 SWAP1 POP JUMP JUMPDEST PUSH1 0x0 PUSH1 0x20 DUP3 ADD SWAP1 POP PUSH2 0x9F6 PUSH1 0x0 DUP4 ADD DUP5 PUSH2 0x938 JUMP JUMPDEST SWAP3 SWAP2 POP POP JUMP JUMPDEST PUSH1 0x0 PUSH1 0x40 DUP3 ADD SWAP1 POP PUSH2 0xA11 PUSH1 0x0 DUP4 ADD DUP6 PUSH2 0x938 JUMP JUMPDEST PUSH2 0xA1E PUSH1 0x20 DUP4 ADD DUP5 PUSH2 0x77B JUMP JUMPDEST SWAP4 SWAP3 POP POP POP JUMP JUMPDEST PUSH1 0x0 PUSH2 0x1A0 DUP3 ADD SWAP1 POP PUSH2 0xA3B PUSH1 0x0 DUP4 ADD DUP6 PUSH2 0x938 JUMP JUMPDEST PUSH2 0xA48 PUSH1 0x20 DUP4 ADD DUP5 PUSH2 0x824 JUMP JUMPDEST SWAP4 SWAP3 POP POP POP JUMP JUMPDEST PUSH1 0x0 PUSH1 0x40 MLOAD SWAP1 POP DUP2 DUP2 ADD DUP2 DUP2 LT PUSH8 0xFFFFFFFFFFFFFFFF DUP3 GT OR ISZERO PUSH2 0xA76 JUMPI PUSH2 0xA75 PUSH2 0xB64 JUMP JUMPDEST JUMPDEST DUP1 PUSH1 0x40 MSTORE POP SWAP2 SWAP1 POP JUMP JUMPDEST PUSH1 0x0 DUP3 DUP3 MSTORE PUSH1 0x20 DUP3 ADD SWAP1 POP SWAP3 SWAP2 POP POP JUMP JUMPDEST PUSH1 0x0 PUSH2 0xA9C DUP3 PUSH2 0xABC JUMP JUMPDEST SWAP1 POP SWAP2 SWAP1 POP JUMP JUMPDEST PUSH1 0x0 DUP2 ISZERO ISZERO SWAP1 POP SWAP2 SWAP1 POP JUMP JUMPDEST PUSH1 0x0 DUP2 PUSH1 0x2 SIGNEXTEND SWAP1 POP SWAP2 SWAP1 POP JUMP JUMPDEST PUSH1 0x0 PUSH20 0xFFFFFFFFFFFFFFFFFFFFFFFFFFFFFFFFFFFFFFFF DUP3 AND SWAP1 POP SWAP2 SWAP1 POP JUMP JUMPDEST PUSH1 0x0 DUP2 SWAP1 POP SWAP2 SWAP1 POP JUMP JUMPDEST PUSH1 0x0 PUSH2 0xAF1 DUP3 PUSH2 0xB40 JUMP JUMPDEST SWAP1 POP SWAP2 SWAP1 POP JUMP JUMPDEST PUSH1 0x0 PUSH2 0xB03 DUP3 PUSH2 0xB0A JUMP JUMPDEST SWAP1 POP SWAP2 SWAP1 POP JUMP JUMPDEST PUSH1 0x0 PUSH2 0xB15 DUP3 PUSH2 0xABC JUMP JUMPDEST SWAP1 POP SWAP2 SWAP1 POP JUMP JUMPDEST PUSH1 0x0 PUSH2 0xB27 DUP3 PUSH2 0xB2E JUMP JUMPDEST SWAP1 POP SWAP2 SWAP1 POP JUMP JUMPDEST PUSH1 0x0 PUSH2 0xB39 DUP3 PUSH2 0xABC JUMP JUMPDEST SWAP1 POP SWAP2 SWAP1 POP JUMP JUMPDEST PUSH1 0x0 PUSH2 0xB4B DUP3 PUSH2 0xB52 JUMP JUMPDEST SWAP1 POP SWAP2 SWAP1 POP JUMP JUMPDEST PUSH1 0x0 PUSH2 0xB5D DUP3 PUSH2 0xABC JUMP JUMPDEST SWAP1 POP SWAP2 SWAP1 POP JUMP JUMPDEST INVALID JUMPDEST PUSH2 0xB6F DUP2 PUSH2 0xA91 JUMP JUMPDEST DUP2 EQ PUSH2 0xB7A JUMPI PUSH1 0x0 DUP1 REVERT JUMPDEST POP JUMP JUMPDEST PUSH2 0xB86 DUP2 PUSH2 0xAA3 JUMP JUMPDEST DUP2 EQ PUSH2 0xB91 JUMPI PUSH1 0x0 DUP1 REVERT JUMPDEST POP JUMP JUMPDEST PUSH2 0xB9D DUP2 PUSH2 0xAAF JUMP JUMPDEST DUP2 EQ PUSH2 0xBA8 JUMPI PUSH1 0x0 DUP1 REVERT JUMPDEST POP JUMP JUMPDEST PUSH2 0xBB4 DUP2 PUSH2 0xABC JUMP JUMPDEST DUP2 EQ PUSH2 0xBBF JUMPI PUSH1 0x0 DUP1 REVERT JUMPDEST POP JUMP JUMPDEST PUSH2 0xBCB DUP2 PUSH2 0xADC JUMP JUMPDEST DUP2 EQ PUSH2 0xBD6 JUMPI PUSH1 0x0 DUP1 REVERT JUMPDEST POP JUMP INVALID LOG2 PUSH5 0x6970667358 0x22 SLT KECCAK256 0xBA 0x27 0xD4 0x25 MULMOD 0xC SWAP10 PUSH7 0x1922712877CCDD JUMPDEST SWAP7 KECCAK256 CODECOPY PUSH16 0x1EC2633C0164B7F165A6532464736F6C PUSH4 0x43000706 STOP CALLER "
				},
				"gasEstimates": {
					"creation": {
						"codeDepositCost": "617400",
						"executionCost": "infinite",
						"totalCost": "infinite"
					},
					"external": {
						"callDeposit(uint256)": "infinite",
						"callMint(uint256,(address,address,int24,int24,int24,uint256,uint256,uint256,uint256,address,uint256,uint160),address,address)": "infinite",
						"externalContractDeposit()": "1235",
						"externalContractMint()": "1254"
					}
				},
				"methodIdentifiers": {
					"callDeposit(uint256)": "a5627d32",
					"callMint(uint256,(address,address,int24,int24,int24,uint256,uint256,uint256,uint256,address,uint256,uint160),address,address)": "a773e1c4",
					"externalContractDeposit()": "2b130f17",
					"externalContractMint()": "36cbf900"
				}
			},
			"storageLayout": {
				"storage": [
					{
						"astId": 70,
						"contract": "contracts/process.sol:CoupleSheepContract",
						"label": "externalContractMint",
						"offset": 0,
						"slot": "0",
						"type": "t_contract(IExternalContractMint)58"
					},
					{
						"astId": 72,
						"contract": "contracts/process.sol:CoupleSheepContract",
						"label": "externalContractDeposit",
						"offset": 0,
						"slot": "1",
						"type": "t_contract(IExternalContractDeposit)68"
					}
				],
				"types": {
					"t_contract(IExternalContractDeposit)68": {
						"encoding": "inplace",
						"label": "contract IExternalContractDeposit",
						"numberOfBytes": "20"
					},
					"t_contract(IExternalContractMint)58": {
						"encoding": "inplace",
						"label": "contract IExternalContractMint",
						"numberOfBytes": "20"
					}
				}
			},
			"userdoc": {
				"kind": "user",
				"methods": {},
				"version": 1
			}
		}
	}
}